{
	"contracts/DataTypes.sol": {
		"DataTypes": {
			"abi": [
				{
					"inputs": [],
					"name": "addr",
					"outputs": [
						{
							"internalType": "address",
							"name": "",
							"type": "address"
						}
					],
					"stateMutability": "view",
					"type": "function"
				},
				{
					"inputs": [],
					"name": "b",
					"outputs": [
						{
							"internalType": "bool",
							"name": "",
							"type": "bool"
						}
					],
					"stateMutability": "view",
					"type": "function"
				},
				{
					"inputs": [],
					"name": "i8",
					"outputs": [
						{
							"internalType": "int256",
							"name": "",
							"type": "int256"
						}
					],
					"stateMutability": "view",
					"type": "function"
				},
				{
					"inputs": [],
					"name": "maxInt",
					"outputs": [
						{
							"internalType": "int256",
							"name": "",
							"type": "int256"
						}
					],
					"stateMutability": "view",
					"type": "function"
				},
				{
					"inputs": [],
					"name": "minInt",
					"outputs": [
						{
							"internalType": "int256",
							"name": "",
							"type": "int256"
						}
					],
					"stateMutability": "view",
					"type": "function"
				},
				{
					"inputs": [],
					"name": "ui8",
					"outputs": [
						{
							"internalType": "uint8",
							"name": "",
							"type": "uint8"
						}
					],
					"stateMutability": "view",
					"type": "function"
				}
			],
			"devdoc": {
				"kind": "dev",
				"methods": {},
				"version": 1
			},
			"evm": {
				"assembly": "    /* \"contracts/DataTypes.sol\":55:399  contract DataTypes{... */\n  mstore(0x40, 0x80)\n    /* \"contracts/DataTypes.sol\":95:99  true */\n  0x01\n    /* \"contracts/DataTypes.sol\":79:99  bool public b = true */\n  0x00\n  dup1\n  0x0100\n  exp\n  dup2\n  sload\n  dup2\n  0xff\n  mul\n  not\n  and\n  swap1\n  dup4\n  iszero\n  iszero\n  mul\n  or\n  swap1\n  sstore\n  pop\n    /* \"contracts/DataTypes.sol\":124:125  8 */\n  0x08\n    /* \"contracts/DataTypes.sol\":105:125  uint8 public ui8 = 8 */\n  0x00\n  exp(0x0100, 0x01)\n  dup2\n  sload\n  dup2\n  0xff\n  mul\n  not\n  and\n  swap1\n  dup4\n  0xff\n  and\n  mul\n  or\n  swap1\n  sstore\n  pop\n    /* \"contracts/DataTypes.sol\":147:149  -2 */\n  0xfffffffffffffffffffffffffffffffffffffffffffffffffffffffffffffffe\n    /* \"contracts/DataTypes.sol\":131:149  int public i8 = -2 */\n  0x01\n  sstore\n    /* \"contracts/DataTypes.sol\":180:193  type(int).min */\n  0x8000000000000000000000000000000000000000000000000000000000000000\n    /* \"contracts/DataTypes.sol\":160:193  int public minInt = type(int).min */\n  0x02\n  sstore\n    /* \"contracts/DataTypes.sol\":219:232  type(int).max */\n  0x7fffffffffffffffffffffffffffffffffffffffffffffffffffffffffffffff\n    /* \"contracts/DataTypes.sol\":199:232  int public maxInt = type(int).max */\n  0x03\n  sstore\n    /* \"contracts/DataTypes.sol\":260:302  0x7ae71b5321BB7D7c7866f99B19aE604A05962a9E */\n  0x7ae71b5321bb7d7c7866f99b19ae604a05962a9e\n    /* \"contracts/DataTypes.sol\":238:302  address public addr = 0x7ae71b5321BB7D7c7866f99B19aE604A05962a9E */\n  0x04\n  exp(0x0100, 0x00)\n  dup2\n  sload\n  dup2\n  0xffffffffffffffffffffffffffffffffffffffff\n  mul\n  not\n  and\n  swap1\n  dup4\n  0xffffffffffffffffffffffffffffffffffffffff\n  and\n  mul\n  or\n  swap1\n  sstore\n  pop\n    /* \"contracts/DataTypes.sol\":55:399  contract DataTypes{... */\n  callvalue\n  dup1\n  iszero\n  tag_1\n  jumpi\n  0x00\n  dup1\n  revert\ntag_1:\n  pop\n  dataSize(sub_0)\n  dup1\n  dataOffset(sub_0)\n  0x00\n  codecopy\n  0x00\n  return\nstop\n\nsub_0: assembly {\n        /* \"contracts/DataTypes.sol\":55:399  contract DataTypes{... */\n      mstore(0x40, 0x80)\n      callvalue\n      dup1\n      iszero\n      tag_1\n      jumpi\n      0x00\n      dup1\n      revert\n    tag_1:\n      pop\n      jumpi(tag_2, lt(calldatasize, 0x04))\n      shr(0xe0, calldataload(0x00))\n      dup1\n      0x4df7e3d0\n      eq\n      tag_3\n      jumpi\n      dup1\n      0x767800de\n      eq\n      tag_4\n      jumpi\n      dup1\n      0x7a4c2571\n      eq\n      tag_5\n      jumpi\n      dup1\n      0x7e4e14cc\n      eq\n      tag_6\n      jumpi\n      dup1\n      0x921cda74\n      eq\n      tag_7\n      jumpi\n      dup1\n      0xac0c6a70\n      eq\n      tag_8\n      jumpi\n    tag_2:\n      0x00\n      dup1\n      revert\n        /* \"contracts/DataTypes.sol\":79:99  bool public b = true */\n    tag_3:\n      tag_9\n      tag_10\n      jump\t// in\n    tag_9:\n      mload(0x40)\n      tag_11\n      swap2\n      swap1\n      tag_12\n      jump\t// in\n    tag_11:\n      mload(0x40)\n      dup1\n      swap2\n      sub\n      swap1\n      return\n        /* \"contracts/DataTypes.sol\":238:302  address public addr = 0x7ae71b5321BB7D7c7866f99B19aE604A05962a9E */\n    tag_4:\n      tag_13\n      tag_14\n      jump\t// in\n    tag_13:\n      mload(0x40)\n      tag_15\n      swap2\n      swap1\n      tag_16\n      jump\t// in\n    tag_15:\n      mload(0x40)\n      dup1\n      swap2\n      sub\n      swap1\n      return\n        /* \"contracts/DataTypes.sol\":199:232  int public maxInt = type(int).max */\n    tag_5:\n      tag_17\n      tag_18\n      jump\t// in\n    tag_17:\n      mload(0x40)\n      tag_19\n      swap2\n      swap1\n      tag_20\n      jump\t// in\n    tag_19:\n      mload(0x40)\n      dup1\n      swap2\n      sub\n      swap1\n      return\n        /* \"contracts/DataTypes.sol\":160:193  int public minInt = type(int).min */\n    tag_6:\n      tag_21\n      tag_22\n      jump\t// in\n    tag_21:\n      mload(0x40)\n      tag_23\n      swap2\n      swap1\n      tag_20\n      jump\t// in\n    tag_23:\n      mload(0x40)\n      dup1\n      swap2\n      sub\n      swap1\n      return\n        /* \"contracts/DataTypes.sol\":131:149  int public i8 = -2 */\n    tag_7:\n      tag_24\n      tag_25\n      jump\t// in\n    tag_24:\n      mload(0x40)\n      tag_26\n      swap2\n      swap1\n      tag_20\n      jump\t// in\n    tag_26:\n      mload(0x40)\n      dup1\n      swap2\n      sub\n      swap1\n      return\n        /* \"contracts/DataTypes.sol\":105:125  uint8 public ui8 = 8 */\n    tag_8:\n      tag_27\n      tag_28\n      jump\t// in\n    tag_27:\n      mload(0x40)\n      tag_29\n      swap2\n      swap1\n      tag_30\n      jump\t// in\n    tag_29:\n      mload(0x40)\n      dup1\n      swap2\n      sub\n      swap1\n      return\n        /* \"contracts/DataTypes.sol\":79:99  bool public b = true */\n    tag_10:\n      0x00\n      dup1\n      sload\n      swap1\n      0x0100\n      exp\n      swap1\n      div\n      0xff\n      and\n      dup2\n      jump\t// out\n        /* \"contracts/DataTypes.sol\":238:302  address public addr = 0x7ae71b5321BB7D7c7866f99B19aE604A05962a9E */\n    tag_14:\n      0x04\n      0x00\n      swap1\n      sload\n      swap1\n      0x0100\n      exp\n      swap1\n      div\n      0xffffffffffffffffffffffffffffffffffffffff\n      and\n      dup2\n      jump\t// out\n        /* \"contracts/DataTypes.sol\":199:232  int public maxInt = type(int).max */\n    tag_18:\n      sload(0x03)\n      dup2\n      jump\t// out\n        /* \"contracts/DataTypes.sol\":160:193  int public minInt = type(int).min */\n    tag_22:\n      sload(0x02)\n      dup2\n      jump\t// out\n        /* \"contracts/DataTypes.sol\":131:149  int public i8 = -2 */\n    tag_25:\n      sload(0x01)\n      dup2\n      jump\t// out\n        /* \"contracts/DataTypes.sol\":105:125  uint8 public ui8 = 8 */\n    tag_28:\n      0x00\n      0x01\n      swap1\n      sload\n      swap1\n      0x0100\n      exp\n      swap1\n      div\n      0xff\n      and\n      dup2\n      jump\t// out\n        /* \"#utility.yul\":7:125   */\n    tag_32:\n        /* \"#utility.yul\":94:118   */\n      tag_34\n        /* \"#utility.yul\":112:117   */\n      dup2\n        /* \"#utility.yul\":94:118   */\n      tag_35\n      jump\t// in\n    tag_34:\n        /* \"#utility.yul\":89:92   */\n      dup3\n        /* \"#utility.yul\":82:119   */\n      mstore\n        /* \"#utility.yul\":72:125   */\n      pop\n      pop\n      jump\t// out\n        /* \"#utility.yul\":131:240   */\n    tag_36:\n        /* \"#utility.yul\":212:233   */\n      tag_38\n        /* \"#utility.yul\":227:232   */\n      dup2\n        /* \"#utility.yul\":212:233   */\n      tag_39\n      jump\t// in\n    tag_38:\n        /* \"#utility.yul\":207:210   */\n      dup3\n        /* \"#utility.yul\":200:234   */\n      mstore\n        /* \"#utility.yul\":190:240   */\n      pop\n      pop\n      jump\t// out\n        /* \"#utility.yul\":246:361   */\n    tag_40:\n        /* \"#utility.yul\":331:354   */\n      tag_42\n        /* \"#utility.yul\":348:353   */\n      dup2\n        /* \"#utility.yul\":331:354   */\n      tag_43\n      jump\t// in\n    tag_42:\n        /* \"#utility.yul\":326:329   */\n      dup3\n        /* \"#utility.yul\":319:355   */\n      mstore\n        /* \"#utility.yul\":309:361   */\n      pop\n      pop\n      jump\t// out\n        /* \"#utility.yul\":367:479   */\n    tag_44:\n        /* \"#utility.yul\":450:472   */\n      tag_46\n        /* \"#utility.yul\":466:471   */\n      dup2\n        /* \"#utility.yul\":450:472   */\n      tag_47\n      jump\t// in\n    tag_46:\n        /* \"#utility.yul\":445:448   */\n      dup3\n        /* \"#utility.yul\":438:473   */\n      mstore\n        /* \"#utility.yul\":428:479   */\n      pop\n      pop\n      jump\t// out\n        /* \"#utility.yul\":485:707   */\n    tag_16:\n        /* \"#utility.yul\":578:582   */\n      0x00\n        /* \"#utility.yul\":616:618   */\n      0x20\n        /* \"#utility.yul\":605:614   */\n      dup3\n        /* \"#utility.yul\":601:619   */\n      add\n        /* \"#utility.yul\":593:619   */\n      swap1\n      pop\n        /* \"#utility.yul\":629:700   */\n      tag_49\n        /* \"#utility.yul\":697:698   */\n      0x00\n        /* \"#utility.yul\":686:695   */\n      dup4\n        /* \"#utility.yul\":682:699   */\n      add\n        /* \"#utility.yul\":673:679   */\n      dup5\n        /* \"#utility.yul\":629:700   */\n      tag_32\n      jump\t// in\n    tag_49:\n        /* \"#utility.yul\":583:707   */\n      swap3\n      swap2\n      pop\n      pop\n      jump\t// out\n        /* \"#utility.yul\":713:923   */\n    tag_12:\n        /* \"#utility.yul\":800:804   */\n      0x00\n        /* \"#utility.yul\":838:840   */\n      0x20\n        /* \"#utility.yul\":827:836   */\n      dup3\n        /* \"#utility.yul\":823:841   */\n      add\n        /* \"#utility.yul\":815:841   */\n      swap1\n      pop\n        /* \"#utility.yul\":851:916   */\n      tag_51\n        /* \"#utility.yul\":913:914   */\n      0x00\n        /* \"#utility.yul\":902:911   */\n      dup4\n        /* \"#utility.yul\":898:915   */\n      add\n        /* \"#utility.yul\":889:895   */\n      dup5\n        /* \"#utility.yul\":851:916   */\n      tag_36\n      jump\t// in\n    tag_51:\n        /* \"#utility.yul\":805:923   */\n      swap3\n      swap2\n      pop\n      pop\n      jump\t// out\n        /* \"#utility.yul\":929:1147   */\n    tag_20:\n        /* \"#utility.yul\":1020:1024   */\n      0x00\n        /* \"#utility.yul\":1058:1060   */\n      0x20\n        /* \"#utility.yul\":1047:1056   */\n      dup3\n        /* \"#utility.yul\":1043:1061   */\n      add\n        /* \"#utility.yul\":1035:1061   */\n      swap1\n      pop\n        /* \"#utility.yul\":1071:1140   */\n      tag_53\n        /* \"#utility.yul\":1137:1138   */\n      0x00\n        /* \"#utility.yul\":1126:1135   */\n      dup4\n        /* \"#utility.yul\":1122:1139   */\n      add\n        /* \"#utility.yul\":1113:1119   */\n      dup5\n        /* \"#utility.yul\":1071:1140   */\n      tag_40\n      jump\t// in\n    tag_53:\n        /* \"#utility.yul\":1025:1147   */\n      swap3\n      swap2\n      pop\n      pop\n      jump\t// out\n        /* \"#utility.yul\":1153:1367   */\n    tag_30:\n        /* \"#utility.yul\":1242:1246   */\n      0x00\n        /* \"#utility.yul\":1280:1282   */\n      0x20\n        /* \"#utility.yul\":1269:1278   */\n      dup3\n        /* \"#utility.yul\":1265:1283   */\n      add\n        /* \"#utility.yul\":1257:1283   */\n      swap1\n      pop\n        /* \"#utility.yul\":1293:1360   */\n      tag_55\n        /* \"#utility.yul\":1357:1358   */\n      0x00\n        /* \"#utility.yul\":1346:1355   */\n      dup4\n        /* \"#utility.yul\":1342:1359   */\n      add\n        /* \"#utility.yul\":1333:1339   */\n      dup5\n        /* \"#utility.yul\":1293:1360   */\n      tag_44\n      jump\t// in\n    tag_55:\n        /* \"#utility.yul\":1247:1367   */\n      swap3\n      swap2\n      pop\n      pop\n      jump\t// out\n        /* \"#utility.yul\":1373:1469   */\n    tag_35:\n        /* \"#utility.yul\":1410:1417   */\n      0x00\n        /* \"#utility.yul\":1439:1463   */\n      tag_57\n        /* \"#utility.yul\":1457:1462   */\n      dup3\n        /* \"#utility.yul\":1439:1463   */\n      tag_58\n      jump\t// in\n    tag_57:\n        /* \"#utility.yul\":1428:1463   */\n      swap1\n      pop\n        /* \"#utility.yul\":1418:1469   */\n      swap2\n      swap1\n      pop\n      jump\t// out\n        /* \"#utility.yul\":1475:1565   */\n    tag_39:\n        /* \"#utility.yul\":1509:1516   */\n      0x00\n        /* \"#utility.yul\":1552:1557   */\n      dup2\n        /* \"#utility.yul\":1545:1558   */\n      iszero\n        /* \"#utility.yul\":1538:1559   */\n      iszero\n        /* \"#utility.yul\":1527:1559   */\n      swap1\n      pop\n        /* \"#utility.yul\":1517:1565   */\n      swap2\n      swap1\n      pop\n      jump\t// out\n        /* \"#utility.yul\":1571:1647   */\n    tag_43:\n        /* \"#utility.yul\":1607:1614   */\n      0x00\n        /* \"#utility.yul\":1636:1641   */\n      dup2\n        /* \"#utility.yul\":1625:1641   */\n      swap1\n      pop\n        /* \"#utility.yul\":1615:1647   */\n      swap2\n      swap1\n      pop\n      jump\t// out\n        /* \"#utility.yul\":1653:1779   */\n    tag_58:\n        /* \"#utility.yul\":1690:1697   */\n      0x00\n        /* \"#utility.yul\":1730:1772   */\n      0xffffffffffffffffffffffffffffffffffffffff\n        /* \"#utility.yul\":1723:1728   */\n      dup3\n        /* \"#utility.yul\":1719:1773   */\n      and\n        /* \"#utility.yul\":1708:1773   */\n      swap1\n      pop\n        /* \"#utility.yul\":1698:1779   */\n      swap2\n      swap1\n      pop\n      jump\t// out\n        /* \"#utility.yul\":1785:1871   */\n    tag_47:\n        /* \"#utility.yul\":1820:1827   */\n      0x00\n        /* \"#utility.yul\":1860:1864   */\n      0xff\n        /* \"#utility.yul\":1853:1858   */\n      dup3\n        /* \"#utility.yul\":1849:1865   */\n      and\n        /* \"#utility.yul\":1838:1865   */\n      swap1\n      pop\n        /* \"#utility.yul\":1828:1871   */\n      swap2\n      swap1\n      pop\n      jump\t// out\n\n    auxdata: 0xa26469706673582212201638e1102af537abbe3902d4388b102851f3b8c7dd2304dcce38c14704eb26b164736f6c63430008060033\n}\n",
				"bytecode": {
					"linkReferences": {},
					"object": "608060405260016000806101000a81548160ff0219169083151502179055506008600060016101000a81548160ff021916908360ff1602179055507ffffffffffffffffffffffffffffffffffffffffffffffffffffffffffffffffe6001557f80000000000000000000000000000000000000000000000000000000000000006002557f7fffffffffffffffffffffffffffffffffffffffffffffffffffffffffffffff600355737ae71b5321bb7d7c7866f99b19ae604a05962a9e600460006101000a81548173ffffffffffffffffffffffffffffffffffffffff021916908373ffffffffffffffffffffffffffffffffffffffff16021790555034801561010757600080fd5b506102aa806101176000396000f3fe608060405234801561001057600080fd5b50600436106100625760003560e01c80634df7e3d014610067578063767800de146100855780637a4c2571146100a35780637e4e14cc146100c1578063921cda74146100df578063ac0c6a70146100fd575b600080fd5b61006f61011b565b60405161007c91906101ce565b60405180910390f35b61008d61012c565b60405161009a91906101b3565b60405180910390f35b6100ab610152565b6040516100b891906101e9565b60405180910390f35b6100c9610158565b6040516100d691906101e9565b60405180910390f35b6100e761015e565b6040516100f491906101e9565b60405180910390f35b610105610164565b6040516101129190610204565b60405180910390f35b60008054906101000a900460ff1681565b600460009054906101000a900473ffffffffffffffffffffffffffffffffffffffff1681565b60035481565b60025481565b60015481565b600060019054906101000a900460ff1681565b6101808161021f565b82525050565b61018f81610231565b82525050565b61019e8161023d565b82525050565b6101ad81610267565b82525050565b60006020820190506101c86000830184610177565b92915050565b60006020820190506101e36000830184610186565b92915050565b60006020820190506101fe6000830184610195565b92915050565b600060208201905061021960008301846101a4565b92915050565b600061022a82610247565b9050919050565b60008115159050919050565b6000819050919050565b600073ffffffffffffffffffffffffffffffffffffffff82169050919050565b600060ff8216905091905056fea26469706673582212201638e1102af537abbe3902d4388b102851f3b8c7dd2304dcce38c14704eb26b164736f6c63430008060033",
					"opcodes": "PUSH1 0x80 PUSH1 0x40 MSTORE PUSH1 0x1 PUSH1 0x0 DUP1 PUSH2 0x100 EXP DUP2 SLOAD DUP2 PUSH1 0xFF MUL NOT AND SWAP1 DUP4 ISZERO ISZERO MUL OR SWAP1 SSTORE POP PUSH1 0x8 PUSH1 0x0 PUSH1 0x1 PUSH2 0x100 EXP DUP2 SLOAD DUP2 PUSH1 0xFF MUL NOT AND SWAP1 DUP4 PUSH1 0xFF AND MUL OR SWAP1 SSTORE POP PUSH32 0xFFFFFFFFFFFFFFFFFFFFFFFFFFFFFFFFFFFFFFFFFFFFFFFFFFFFFFFFFFFFFFFE PUSH1 0x1 SSTORE PUSH32 0x8000000000000000000000000000000000000000000000000000000000000000 PUSH1 0x2 SSTORE PUSH32 0x7FFFFFFFFFFFFFFFFFFFFFFFFFFFFFFFFFFFFFFFFFFFFFFFFFFFFFFFFFFFFFFF PUSH1 0x3 SSTORE PUSH20 0x7AE71B5321BB7D7C7866F99B19AE604A05962A9E PUSH1 0x4 PUSH1 0x0 PUSH2 0x100 EXP DUP2 SLOAD DUP2 PUSH20 0xFFFFFFFFFFFFFFFFFFFFFFFFFFFFFFFFFFFFFFFF MUL NOT AND SWAP1 DUP4 PUSH20 0xFFFFFFFFFFFFFFFFFFFFFFFFFFFFFFFFFFFFFFFF AND MUL OR SWAP1 SSTORE POP CALLVALUE DUP1 ISZERO PUSH2 0x107 JUMPI PUSH1 0x0 DUP1 REVERT JUMPDEST POP PUSH2 0x2AA DUP1 PUSH2 0x117 PUSH1 0x0 CODECOPY PUSH1 0x0 RETURN INVALID PUSH1 0x80 PUSH1 0x40 MSTORE CALLVALUE DUP1 ISZERO PUSH2 0x10 JUMPI PUSH1 0x0 DUP1 REVERT JUMPDEST POP PUSH1 0x4 CALLDATASIZE LT PUSH2 0x62 JUMPI PUSH1 0x0 CALLDATALOAD PUSH1 0xE0 SHR DUP1 PUSH4 0x4DF7E3D0 EQ PUSH2 0x67 JUMPI DUP1 PUSH4 0x767800DE EQ PUSH2 0x85 JUMPI DUP1 PUSH4 0x7A4C2571 EQ PUSH2 0xA3 JUMPI DUP1 PUSH4 0x7E4E14CC EQ PUSH2 0xC1 JUMPI DUP1 PUSH4 0x921CDA74 EQ PUSH2 0xDF JUMPI DUP1 PUSH4 0xAC0C6A70 EQ PUSH2 0xFD JUMPI JUMPDEST PUSH1 0x0 DUP1 REVERT JUMPDEST PUSH2 0x6F PUSH2 0x11B JUMP JUMPDEST PUSH1 0x40 MLOAD PUSH2 0x7C SWAP2 SWAP1 PUSH2 0x1CE JUMP JUMPDEST PUSH1 0x40 MLOAD DUP1 SWAP2 SUB SWAP1 RETURN JUMPDEST PUSH2 0x8D PUSH2 0x12C JUMP JUMPDEST PUSH1 0x40 MLOAD PUSH2 0x9A SWAP2 SWAP1 PUSH2 0x1B3 JUMP JUMPDEST PUSH1 0x40 MLOAD DUP1 SWAP2 SUB SWAP1 RETURN JUMPDEST PUSH2 0xAB PUSH2 0x152 JUMP JUMPDEST PUSH1 0x40 MLOAD PUSH2 0xB8 SWAP2 SWAP1 PUSH2 0x1E9 JUMP JUMPDEST PUSH1 0x40 MLOAD DUP1 SWAP2 SUB SWAP1 RETURN JUMPDEST PUSH2 0xC9 PUSH2 0x158 JUMP JUMPDEST PUSH1 0x40 MLOAD PUSH2 0xD6 SWAP2 SWAP1 PUSH2 0x1E9 JUMP JUMPDEST PUSH1 0x40 MLOAD DUP1 SWAP2 SUB SWAP1 RETURN JUMPDEST PUSH2 0xE7 PUSH2 0x15E JUMP JUMPDEST PUSH1 0x40 MLOAD PUSH2 0xF4 SWAP2 SWAP1 PUSH2 0x1E9 JUMP JUMPDEST PUSH1 0x40 MLOAD DUP1 SWAP2 SUB SWAP1 RETURN JUMPDEST PUSH2 0x105 PUSH2 0x164 JUMP JUMPDEST PUSH1 0x40 MLOAD PUSH2 0x112 SWAP2 SWAP1 PUSH2 0x204 JUMP JUMPDEST PUSH1 0x40 MLOAD DUP1 SWAP2 SUB SWAP1 RETURN JUMPDEST PUSH1 0x0 DUP1 SLOAD SWAP1 PUSH2 0x100 EXP SWAP1 DIV PUSH1 0xFF AND DUP2 JUMP JUMPDEST PUSH1 0x4 PUSH1 0x0 SWAP1 SLOAD SWAP1 PUSH2 0x100 EXP SWAP1 DIV PUSH20 0xFFFFFFFFFFFFFFFFFFFFFFFFFFFFFFFFFFFFFFFF AND DUP2 JUMP JUMPDEST PUSH1 0x3 SLOAD DUP2 JUMP JUMPDEST PUSH1 0x2 SLOAD DUP2 JUMP JUMPDEST PUSH1 0x1 SLOAD DUP2 JUMP JUMPDEST PUSH1 0x0 PUSH1 0x1 SWAP1 SLOAD SWAP1 PUSH2 0x100 EXP SWAP1 DIV PUSH1 0xFF AND DUP2 JUMP JUMPDEST PUSH2 0x180 DUP2 PUSH2 0x21F JUMP JUMPDEST DUP3 MSTORE POP POP JUMP JUMPDEST PUSH2 0x18F DUP2 PUSH2 0x231 JUMP JUMPDEST DUP3 MSTORE POP POP JUMP JUMPDEST PUSH2 0x19E DUP2 PUSH2 0x23D JUMP JUMPDEST DUP3 MSTORE POP POP JUMP JUMPDEST PUSH2 0x1AD DUP2 PUSH2 0x267 JUMP JUMPDEST DUP3 MSTORE POP POP JUMP JUMPDEST PUSH1 0x0 PUSH1 0x20 DUP3 ADD SWAP1 POP PUSH2 0x1C8 PUSH1 0x0 DUP4 ADD DUP5 PUSH2 0x177 JUMP JUMPDEST SWAP3 SWAP2 POP POP JUMP JUMPDEST PUSH1 0x0 PUSH1 0x20 DUP3 ADD SWAP1 POP PUSH2 0x1E3 PUSH1 0x0 DUP4 ADD DUP5 PUSH2 0x186 JUMP JUMPDEST SWAP3 SWAP2 POP POP JUMP JUMPDEST PUSH1 0x0 PUSH1 0x20 DUP3 ADD SWAP1 POP PUSH2 0x1FE PUSH1 0x0 DUP4 ADD DUP5 PUSH2 0x195 JUMP JUMPDEST SWAP3 SWAP2 POP POP JUMP JUMPDEST PUSH1 0x0 PUSH1 0x20 DUP3 ADD SWAP1 POP PUSH2 0x219 PUSH1 0x0 DUP4 ADD DUP5 PUSH2 0x1A4 JUMP JUMPDEST SWAP3 SWAP2 POP POP JUMP JUMPDEST PUSH1 0x0 PUSH2 0x22A DUP3 PUSH2 0x247 JUMP JUMPDEST SWAP1 POP SWAP2 SWAP1 POP JUMP JUMPDEST PUSH1 0x0 DUP2 ISZERO ISZERO SWAP1 POP SWAP2 SWAP1 POP JUMP JUMPDEST PUSH1 0x0 DUP2 SWAP1 POP SWAP2 SWAP1 POP JUMP JUMPDEST PUSH1 0x0 PUSH20 0xFFFFFFFFFFFFFFFFFFFFFFFFFFFFFFFFFFFFFFFF DUP3 AND SWAP1 POP SWAP2 SWAP1 POP JUMP JUMPDEST PUSH1 0x0 PUSH1 0xFF DUP3 AND SWAP1 POP SWAP2 SWAP1 POP JUMP INVALID LOG2 PUSH5 0x6970667358 0x22 SLT KECCAK256 AND CODESIZE 0xE1 LT 0x2A CREATE2 CALLDATACOPY 0xAB 0xBE CODECOPY MUL 0xD4 CODESIZE DUP12 LT 0x28 MLOAD RETURN 0xB8 0xC7 0xDD 0x23 DIV 0xDC 0xCE CODESIZE 0xC1 SELFBALANCE DIV 0xEB 0x26 0xB1 PUSH5 0x736F6C6343 STOP ADDMOD MOD STOP CALLER "
				},
				"gasEstimates": {
					"creation": {
						"codeDepositCost": "136400",
						"executionCost": "139352",
						"totalCost": "275752"
					},
					"external": {
						"addr()": "2514",
						"b()": "2446",
						"i8()": "2495",
						"maxInt()": "2451",
						"minInt()": "2473",
						"ui8()": "2609"
					}
				},
				"methodIdentifiers": {
					"addr()": "767800de",
					"b()": "4df7e3d0",
					"i8()": "921cda74",
					"maxInt()": "7a4c2571",
					"minInt()": "7e4e14cc",
					"ui8()": "ac0c6a70"
				}
			},
			"storageLayout": {
				"storage": [
					{
						"astId": 4,
						"contract": "contracts/DataTypes.sol:DataTypes",
						"label": "b",
						"offset": 0,
						"slot": "0",
						"type": "t_bool"
					},
					{
						"astId": 7,
						"contract": "contracts/DataTypes.sol:DataTypes",
						"label": "ui8",
						"offset": 1,
						"slot": "0",
						"type": "t_uint8"
					},
					{
						"astId": 11,
						"contract": "contracts/DataTypes.sol:DataTypes",
						"label": "i8",
						"offset": 0,
						"slot": "1",
						"type": "t_int256"
					},
					{
						"astId": 18,
						"contract": "contracts/DataTypes.sol:DataTypes",
						"label": "minInt",
						"offset": 0,
						"slot": "2",
						"type": "t_int256"
					},
					{
						"astId": 25,
						"contract": "contracts/DataTypes.sol:DataTypes",
						"label": "maxInt",
						"offset": 0,
						"slot": "3",
						"type": "t_int256"
					},
					{
						"astId": 28,
						"contract": "contracts/DataTypes.sol:DataTypes",
						"label": "addr",
						"offset": 0,
						"slot": "4",
						"type": "t_address"
					}
				],
				"types": {
					"t_address": {
						"encoding": "inplace",
						"label": "address",
						"numberOfBytes": "20"
					},
					"t_bool": {
						"encoding": "inplace",
						"label": "bool",
						"numberOfBytes": "1"
					},
					"t_int256": {
						"encoding": "inplace",
						"label": "int256",
						"numberOfBytes": "32"
					},
					"t_uint8": {
						"encoding": "inplace",
						"label": "uint8",
						"numberOfBytes": "1"
					}
				}
			},
			"userdoc": {
				"kind": "user",
				"methods": {},
				"version": 1
			}
		}
	}
}