{
	"contracts/Map.sol": {
		"Map": {
			"abi": [
				{
					"inputs": [
						{
							"internalType": "address",
							"name": "addr",
							"type": "address"
						}
					],
					"name": "getMap",
					"outputs": [
						{
							"internalType": "string",
							"name": "",
							"type": "string"
						}
					],
					"stateMutability": "view",
					"type": "function"
				},
				{
					"inputs": [
						{
							"internalType": "address",
							"name": "addr",
							"type": "address"
						},
						{
							"internalType": "string",
							"name": "name",
							"type": "string"
						}
					],
					"name": "setMap",
					"outputs": [],
					"stateMutability": "nonpayable",
					"type": "function"
				}
			],
			"devdoc": {
				"kind": "dev",
				"methods": {},
				"version": 1
			},
			"evm": {
				"assembly": "    /* \"contracts/Map.sol\":55:336  contract Map{... */\n  mstore(0x40, 0x80)\n  callvalue\n  dup1\n  iszero\n  tag_1\n  jumpi\n  0x00\n  dup1\n  revert\ntag_1:\n  pop\n  dataSize(sub_0)\n  dup1\n  dataOffset(sub_0)\n  0x00\n  codecopy\n  0x00\n  return\nstop\n\nsub_0: assembly {\n        /* \"contracts/Map.sol\":55:336  contract Map{... */\n      mstore(0x40, 0x80)\n      callvalue\n      dup1\n      iszero\n      tag_1\n      jumpi\n      0x00\n      dup1\n      revert\n    tag_1:\n      pop\n      jumpi(tag_2, lt(calldatasize, 0x04))\n      shr(0xe0, calldataload(0x00))\n      dup1\n      0x1947bd2f\n      eq\n      tag_3\n      jumpi\n      dup1\n      0xd6948528\n      eq\n      tag_4\n      jumpi\n    tag_2:\n      0x00\n      dup1\n      revert\n        /* \"contracts/Map.sol\":228:332  function getMap(address addr) public view returns(string memory){... */\n    tag_3:\n      tag_5\n      0x04\n      dup1\n      calldatasize\n      sub\n      dup2\n      add\n      swap1\n      tag_6\n      swap2\n      swap1\n      tag_7\n      jump\t// in\n    tag_6:\n      tag_8\n      jump\t// in\n    tag_5:\n      mload(0x40)\n      tag_9\n      swap2\n      swap1\n      tag_10\n      jump\t// in\n    tag_9:\n      mload(0x40)\n      dup1\n      swap2\n      sub\n      swap1\n      return\n        /* \"contracts/Map.sol\":126:222  function setMap(address addr, string memory name) public{... */\n    tag_4:\n      tag_11\n      0x04\n      dup1\n      calldatasize\n      sub\n      dup2\n      add\n      swap1\n      tag_12\n      swap2\n      swap1\n      tag_13\n      jump\t// in\n    tag_12:\n      tag_14\n      jump\t// in\n    tag_11:\n      stop\n        /* \"contracts/Map.sol\":228:332  function getMap(address addr) public view returns(string memory){... */\n    tag_8:\n        /* \"contracts/Map.sol\":278:291  string memory */\n      0x60\n        /* \"contracts/Map.sol\":309:319  addressMap */\n      0x00\n        /* \"contracts/Map.sol\":309:325  addressMap[addr] */\n      dup1\n        /* \"contracts/Map.sol\":320:324  addr */\n      dup4\n        /* \"contracts/Map.sol\":309:325  addressMap[addr] */\n      0xffffffffffffffffffffffffffffffffffffffff\n      and\n      0xffffffffffffffffffffffffffffffffffffffff\n      and\n      dup2\n      mstore\n      0x20\n      add\n      swap1\n      dup2\n      mstore\n      0x20\n      add\n      0x00\n      keccak256\n        /* \"contracts/Map.sol\":302:325  return addressMap[addr] */\n      dup1\n      sload\n      tag_16\n      swap1\n      tag_17\n      jump\t// in\n    tag_16:\n      dup1\n      0x1f\n      add\n      0x20\n      dup1\n      swap2\n      div\n      mul\n      0x20\n      add\n      mload(0x40)\n      swap1\n      dup2\n      add\n      0x40\n      mstore\n      dup1\n      swap3\n      swap2\n      swap1\n      dup2\n      dup2\n      mstore\n      0x20\n      add\n      dup3\n      dup1\n      sload\n      tag_18\n      swap1\n      tag_17\n      jump\t// in\n    tag_18:\n      dup1\n      iszero\n      tag_19\n      jumpi\n      dup1\n      0x1f\n      lt\n      tag_20\n      jumpi\n      0x0100\n      dup1\n      dup4\n      sload\n      div\n      mul\n      dup4\n      mstore\n      swap2\n      0x20\n      add\n      swap2\n      jump(tag_19)\n    tag_20:\n      dup3\n      add\n      swap2\n      swap1\n      0x00\n      mstore\n      keccak256(0x00, 0x20)\n      swap1\n    tag_21:\n      dup2\n      sload\n      dup2\n      mstore\n      swap1\n      0x01\n      add\n      swap1\n      0x20\n      add\n      dup1\n      dup4\n      gt\n      tag_21\n      jumpi\n      dup3\n      swap1\n      sub\n      0x1f\n      and\n      dup3\n      add\n      swap2\n    tag_19:\n      pop\n      pop\n      pop\n      pop\n      pop\n      swap1\n      pop\n        /* \"contracts/Map.sol\":228:332  function getMap(address addr) public view returns(string memory){... */\n      swap2\n      swap1\n      pop\n      jump\t// out\n        /* \"contracts/Map.sol\":126:222  function setMap(address addr, string memory name) public{... */\n    tag_14:\n        /* \"contracts/Map.sol\":211:215  name */\n      dup1\n        /* \"contracts/Map.sol\":192:202  addressMap */\n      0x00\n        /* \"contracts/Map.sol\":192:208  addressMap[addr] */\n      dup1\n        /* \"contracts/Map.sol\":203:207  addr */\n      dup5\n        /* \"contracts/Map.sol\":192:208  addressMap[addr] */\n      0xffffffffffffffffffffffffffffffffffffffff\n      and\n      0xffffffffffffffffffffffffffffffffffffffff\n      and\n      dup2\n      mstore\n      0x20\n      add\n      swap1\n      dup2\n      mstore\n      0x20\n      add\n      0x00\n      keccak256\n        /* \"contracts/Map.sol\":192:215  addressMap[addr] = name */\n      swap1\n      dup1\n      mload\n      swap1\n      0x20\n      add\n      swap1\n      tag_23\n      swap3\n      swap2\n      swap1\n      tag_24\n      jump\t// in\n    tag_23:\n      pop\n        /* \"contracts/Map.sol\":126:222  function setMap(address addr, string memory name) public{... */\n      pop\n      pop\n      jump\t// out\n    tag_24:\n      dup3\n      dup1\n      sload\n      tag_25\n      swap1\n      tag_17\n      jump\t// in\n    tag_25:\n      swap1\n      0x00\n      mstore\n      keccak256(0x00, 0x20)\n      swap1\n      0x1f\n      add\n      0x20\n      swap1\n      div\n      dup2\n      add\n      swap3\n      dup3\n      tag_27\n      jumpi\n      0x00\n      dup6\n      sstore\n      jump(tag_26)\n    tag_27:\n      dup3\n      0x1f\n      lt\n      tag_28\n      jumpi\n      dup1\n      mload\n      not(0xff)\n      and\n      dup4\n      dup1\n      add\n      or\n      dup6\n      sstore\n      jump(tag_26)\n    tag_28:\n      dup3\n      dup1\n      add\n      0x01\n      add\n      dup6\n      sstore\n      dup3\n      iszero\n      tag_26\n      jumpi\n      swap2\n      dup3\n      add\n    tag_29:\n      dup3\n      dup2\n      gt\n      iszero\n      tag_30\n      jumpi\n      dup3\n      mload\n      dup3\n      sstore\n      swap2\n      0x20\n      add\n      swap2\n      swap1\n      0x01\n      add\n      swap1\n      jump(tag_29)\n    tag_30:\n    tag_26:\n      pop\n      swap1\n      pop\n      tag_31\n      swap2\n      swap1\n      tag_32\n      jump\t// in\n    tag_31:\n      pop\n      swap1\n      jump\t// out\n    tag_32:\n    tag_33:\n      dup1\n      dup3\n      gt\n      iszero\n      tag_34\n      jumpi\n      0x00\n      dup2\n      0x00\n      swap1\n      sstore\n      pop\n      0x01\n      add\n      jump(tag_33)\n    tag_34:\n      pop\n      swap1\n      jump\t// out\n        /* \"#utility.yul\":7:419   */\n    tag_36:\n        /* \"#utility.yul\":85:90   */\n      0x00\n        /* \"#utility.yul\":110:176   */\n      tag_38\n        /* \"#utility.yul\":126:175   */\n      tag_39\n        /* \"#utility.yul\":168:174   */\n      dup5\n        /* \"#utility.yul\":126:175   */\n      tag_40\n      jump\t// in\n    tag_39:\n        /* \"#utility.yul\":110:176   */\n      tag_41\n      jump\t// in\n    tag_38:\n        /* \"#utility.yul\":101:176   */\n      swap1\n      pop\n        /* \"#utility.yul\":199:205   */\n      dup3\n        /* \"#utility.yul\":192:197   */\n      dup2\n        /* \"#utility.yul\":185:206   */\n      mstore\n        /* \"#utility.yul\":237:241   */\n      0x20\n        /* \"#utility.yul\":230:235   */\n      dup2\n        /* \"#utility.yul\":226:242   */\n      add\n        /* \"#utility.yul\":275:278   */\n      dup5\n        /* \"#utility.yul\":266:272   */\n      dup5\n        /* \"#utility.yul\":261:264   */\n      dup5\n        /* \"#utility.yul\":257:273   */\n      add\n        /* \"#utility.yul\":254:279   */\n      gt\n        /* \"#utility.yul\":251:363   */\n      iszero\n      tag_42\n      jumpi\n        /* \"#utility.yul\":282:361   */\n      tag_43\n      tag_44\n      jump\t// in\n    tag_43:\n        /* \"#utility.yul\":251:363   */\n    tag_42:\n        /* \"#utility.yul\":372:413   */\n      tag_45\n        /* \"#utility.yul\":406:412   */\n      dup5\n        /* \"#utility.yul\":401:404   */\n      dup3\n        /* \"#utility.yul\":396:399   */\n      dup6\n        /* \"#utility.yul\":372:413   */\n      tag_46\n      jump\t// in\n    tag_45:\n        /* \"#utility.yul\":91:419   */\n      pop\n        /* \"#utility.yul\":7:419   */\n      swap4\n      swap3\n      pop\n      pop\n      pop\n      jump\t// out\n        /* \"#utility.yul\":425:564   */\n    tag_47:\n        /* \"#utility.yul\":471:476   */\n      0x00\n        /* \"#utility.yul\":509:515   */\n      dup2\n        /* \"#utility.yul\":496:516   */\n      calldataload\n        /* \"#utility.yul\":487:516   */\n      swap1\n      pop\n        /* \"#utility.yul\":525:558   */\n      tag_49\n        /* \"#utility.yul\":552:557   */\n      dup2\n        /* \"#utility.yul\":525:558   */\n      tag_50\n      jump\t// in\n    tag_49:\n        /* \"#utility.yul\":425:564   */\n      swap3\n      swap2\n      pop\n      pop\n      jump\t// out\n        /* \"#utility.yul\":584:924   */\n    tag_51:\n        /* \"#utility.yul\":640:645   */\n      0x00\n        /* \"#utility.yul\":689:692   */\n      dup3\n        /* \"#utility.yul\":682:686   */\n      0x1f\n        /* \"#utility.yul\":674:680   */\n      dup4\n        /* \"#utility.yul\":670:687   */\n      add\n        /* \"#utility.yul\":666:693   */\n      slt\n        /* \"#utility.yul\":656:778   */\n      tag_53\n      jumpi\n        /* \"#utility.yul\":697:776   */\n      tag_54\n      tag_55\n      jump\t// in\n    tag_54:\n        /* \"#utility.yul\":656:778   */\n    tag_53:\n        /* \"#utility.yul\":814:820   */\n      dup2\n        /* \"#utility.yul\":801:821   */\n      calldataload\n        /* \"#utility.yul\":839:918   */\n      tag_56\n        /* \"#utility.yul\":914:917   */\n      dup5\n        /* \"#utility.yul\":906:912   */\n      dup3\n        /* \"#utility.yul\":899:903   */\n      0x20\n        /* \"#utility.yul\":891:897   */\n      dup7\n        /* \"#utility.yul\":887:904   */\n      add\n        /* \"#utility.yul\":839:918   */\n      tag_36\n      jump\t// in\n    tag_56:\n        /* \"#utility.yul\":830:918   */\n      swap2\n      pop\n        /* \"#utility.yul\":646:924   */\n      pop\n        /* \"#utility.yul\":584:924   */\n      swap3\n      swap2\n      pop\n      pop\n      jump\t// out\n        /* \"#utility.yul\":930:1259   */\n    tag_7:\n        /* \"#utility.yul\":989:995   */\n      0x00\n        /* \"#utility.yul\":1038:1040   */\n      0x20\n        /* \"#utility.yul\":1026:1035   */\n      dup3\n        /* \"#utility.yul\":1017:1024   */\n      dup5\n        /* \"#utility.yul\":1013:1036   */\n      sub\n        /* \"#utility.yul\":1009:1041   */\n      slt\n        /* \"#utility.yul\":1006:1125   */\n      iszero\n      tag_58\n      jumpi\n        /* \"#utility.yul\":1044:1123   */\n      tag_59\n      tag_60\n      jump\t// in\n    tag_59:\n        /* \"#utility.yul\":1006:1125   */\n    tag_58:\n        /* \"#utility.yul\":1164:1165   */\n      0x00\n        /* \"#utility.yul\":1189:1242   */\n      tag_61\n        /* \"#utility.yul\":1234:1241   */\n      dup5\n        /* \"#utility.yul\":1225:1231   */\n      dup3\n        /* \"#utility.yul\":1214:1223   */\n      dup6\n        /* \"#utility.yul\":1210:1232   */\n      add\n        /* \"#utility.yul\":1189:1242   */\n      tag_47\n      jump\t// in\n    tag_61:\n        /* \"#utility.yul\":1179:1242   */\n      swap2\n      pop\n        /* \"#utility.yul\":1135:1252   */\n      pop\n        /* \"#utility.yul\":930:1259   */\n      swap3\n      swap2\n      pop\n      pop\n      jump\t// out\n        /* \"#utility.yul\":1265:1919   */\n    tag_13:\n        /* \"#utility.yul\":1343:1349   */\n      0x00\n        /* \"#utility.yul\":1351:1357   */\n      dup1\n        /* \"#utility.yul\":1400:1402   */\n      0x40\n        /* \"#utility.yul\":1388:1397   */\n      dup4\n        /* \"#utility.yul\":1379:1386   */\n      dup6\n        /* \"#utility.yul\":1375:1398   */\n      sub\n        /* \"#utility.yul\":1371:1403   */\n      slt\n        /* \"#utility.yul\":1368:1487   */\n      iszero\n      tag_63\n      jumpi\n        /* \"#utility.yul\":1406:1485   */\n      tag_64\n      tag_60\n      jump\t// in\n    tag_64:\n        /* \"#utility.yul\":1368:1487   */\n    tag_63:\n        /* \"#utility.yul\":1526:1527   */\n      0x00\n        /* \"#utility.yul\":1551:1604   */\n      tag_65\n        /* \"#utility.yul\":1596:1603   */\n      dup6\n        /* \"#utility.yul\":1587:1593   */\n      dup3\n        /* \"#utility.yul\":1576:1585   */\n      dup7\n        /* \"#utility.yul\":1572:1594   */\n      add\n        /* \"#utility.yul\":1551:1604   */\n      tag_47\n      jump\t// in\n    tag_65:\n        /* \"#utility.yul\":1541:1604   */\n      swap3\n      pop\n        /* \"#utility.yul\":1497:1614   */\n      pop\n        /* \"#utility.yul\":1681:1683   */\n      0x20\n        /* \"#utility.yul\":1670:1679   */\n      dup4\n        /* \"#utility.yul\":1666:1684   */\n      add\n        /* \"#utility.yul\":1653:1685   */\n      calldataload\n        /* \"#utility.yul\":1712:1730   */\n      0xffffffffffffffff\n        /* \"#utility.yul\":1704:1710   */\n      dup2\n        /* \"#utility.yul\":1701:1731   */\n      gt\n        /* \"#utility.yul\":1698:1815   */\n      iszero\n      tag_66\n      jumpi\n        /* \"#utility.yul\":1734:1813   */\n      tag_67\n      tag_68\n      jump\t// in\n    tag_67:\n        /* \"#utility.yul\":1698:1815   */\n    tag_66:\n        /* \"#utility.yul\":1839:1902   */\n      tag_69\n        /* \"#utility.yul\":1894:1901   */\n      dup6\n        /* \"#utility.yul\":1885:1891   */\n      dup3\n        /* \"#utility.yul\":1874:1883   */\n      dup7\n        /* \"#utility.yul\":1870:1892   */\n      add\n        /* \"#utility.yul\":1839:1902   */\n      tag_51\n      jump\t// in\n    tag_69:\n        /* \"#utility.yul\":1829:1902   */\n      swap2\n      pop\n        /* \"#utility.yul\":1624:1912   */\n      pop\n        /* \"#utility.yul\":1265:1919   */\n      swap3\n      pop\n      swap3\n      swap1\n      pop\n      jump\t// out\n        /* \"#utility.yul\":1925:2289   */\n    tag_70:\n        /* \"#utility.yul\":2013:2016   */\n      0x00\n        /* \"#utility.yul\":2041:2080   */\n      tag_72\n        /* \"#utility.yul\":2074:2079   */\n      dup3\n        /* \"#utility.yul\":2041:2080   */\n      tag_73\n      jump\t// in\n    tag_72:\n        /* \"#utility.yul\":2096:2167   */\n      tag_74\n        /* \"#utility.yul\":2160:2166   */\n      dup2\n        /* \"#utility.yul\":2155:2158   */\n      dup6\n        /* \"#utility.yul\":2096:2167   */\n      tag_75\n      jump\t// in\n    tag_74:\n        /* \"#utility.yul\":2089:2167   */\n      swap4\n      pop\n        /* \"#utility.yul\":2176:2228   */\n      tag_76\n        /* \"#utility.yul\":2221:2227   */\n      dup2\n        /* \"#utility.yul\":2216:2219   */\n      dup6\n        /* \"#utility.yul\":2209:2213   */\n      0x20\n        /* \"#utility.yul\":2202:2207   */\n      dup7\n        /* \"#utility.yul\":2198:2214   */\n      add\n        /* \"#utility.yul\":2176:2228   */\n      tag_77\n      jump\t// in\n    tag_76:\n        /* \"#utility.yul\":2253:2282   */\n      tag_78\n        /* \"#utility.yul\":2275:2281   */\n      dup2\n        /* \"#utility.yul\":2253:2282   */\n      tag_79\n      jump\t// in\n    tag_78:\n        /* \"#utility.yul\":2248:2251   */\n      dup5\n        /* \"#utility.yul\":2244:2283   */\n      add\n        /* \"#utility.yul\":2237:2283   */\n      swap2\n      pop\n        /* \"#utility.yul\":2017:2289   */\n      pop\n        /* \"#utility.yul\":1925:2289   */\n      swap3\n      swap2\n      pop\n      pop\n      jump\t// out\n        /* \"#utility.yul\":2295:2608   */\n    tag_10:\n        /* \"#utility.yul\":2408:2412   */\n      0x00\n        /* \"#utility.yul\":2446:2448   */\n      0x20\n        /* \"#utility.yul\":2435:2444   */\n      dup3\n        /* \"#utility.yul\":2431:2449   */\n      add\n        /* \"#utility.yul\":2423:2449   */\n      swap1\n      pop\n        /* \"#utility.yul\":2495:2504   */\n      dup2\n        /* \"#utility.yul\":2489:2493   */\n      dup2\n        /* \"#utility.yul\":2485:2505   */\n      sub\n        /* \"#utility.yul\":2481:2482   */\n      0x00\n        /* \"#utility.yul\":2470:2479   */\n      dup4\n        /* \"#utility.yul\":2466:2483   */\n      add\n        /* \"#utility.yul\":2459:2506   */\n      mstore\n        /* \"#utility.yul\":2523:2601   */\n      tag_81\n        /* \"#utility.yul\":2596:2600   */\n      dup2\n        /* \"#utility.yul\":2587:2593   */\n      dup5\n        /* \"#utility.yul\":2523:2601   */\n      tag_70\n      jump\t// in\n    tag_81:\n        /* \"#utility.yul\":2515:2601   */\n      swap1\n      pop\n        /* \"#utility.yul\":2295:2608   */\n      swap3\n      swap2\n      pop\n      pop\n      jump\t// out\n        /* \"#utility.yul\":2614:2743   */\n    tag_41:\n        /* \"#utility.yul\":2648:2654   */\n      0x00\n        /* \"#utility.yul\":2675:2695   */\n      tag_83\n      tag_84\n      jump\t// in\n    tag_83:\n        /* \"#utility.yul\":2665:2695   */\n      swap1\n      pop\n        /* \"#utility.yul\":2704:2737   */\n      tag_85\n        /* \"#utility.yul\":2732:2736   */\n      dup3\n        /* \"#utility.yul\":2724:2730   */\n      dup3\n        /* \"#utility.yul\":2704:2737   */\n      tag_86\n      jump\t// in\n    tag_85:\n        /* \"#utility.yul\":2614:2743   */\n      swap2\n      swap1\n      pop\n      jump\t// out\n        /* \"#utility.yul\":2749:2824   */\n    tag_84:\n        /* \"#utility.yul\":2782:2788   */\n      0x00\n        /* \"#utility.yul\":2815:2817   */\n      0x40\n        /* \"#utility.yul\":2809:2818   */\n      mload\n        /* \"#utility.yul\":2799:2818   */\n      swap1\n      pop\n        /* \"#utility.yul\":2749:2824   */\n      swap1\n      jump\t// out\n        /* \"#utility.yul\":2830:3138   */\n    tag_40:\n        /* \"#utility.yul\":2892:2896   */\n      0x00\n        /* \"#utility.yul\":2982:3000   */\n      0xffffffffffffffff\n        /* \"#utility.yul\":2974:2980   */\n      dup3\n        /* \"#utility.yul\":2971:3001   */\n      gt\n        /* \"#utility.yul\":2968:3024   */\n      iszero\n      tag_89\n      jumpi\n        /* \"#utility.yul\":3004:3022   */\n      tag_90\n      tag_91\n      jump\t// in\n    tag_90:\n        /* \"#utility.yul\":2968:3024   */\n    tag_89:\n        /* \"#utility.yul\":3042:3071   */\n      tag_92\n        /* \"#utility.yul\":3064:3070   */\n      dup3\n        /* \"#utility.yul\":3042:3071   */\n      tag_79\n      jump\t// in\n    tag_92:\n        /* \"#utility.yul\":3034:3071   */\n      swap1\n      pop\n        /* \"#utility.yul\":3126:3130   */\n      0x20\n        /* \"#utility.yul\":3120:3124   */\n      dup2\n        /* \"#utility.yul\":3116:3131   */\n      add\n        /* \"#utility.yul\":3108:3131   */\n      swap1\n      pop\n        /* \"#utility.yul\":2830:3138   */\n      swap2\n      swap1\n      pop\n      jump\t// out\n        /* \"#utility.yul\":3144:3243   */\n    tag_73:\n        /* \"#utility.yul\":3196:3202   */\n      0x00\n        /* \"#utility.yul\":3230:3235   */\n      dup2\n        /* \"#utility.yul\":3224:3236   */\n      mload\n        /* \"#utility.yul\":3214:3236   */\n      swap1\n      pop\n        /* \"#utility.yul\":3144:3243   */\n      swap2\n      swap1\n      pop\n      jump\t// out\n        /* \"#utility.yul\":3249:3418   */\n    tag_75:\n        /* \"#utility.yul\":3333:3344   */\n      0x00\n        /* \"#utility.yul\":3367:3373   */\n      dup3\n        /* \"#utility.yul\":3362:3365   */\n      dup3\n        /* \"#utility.yul\":3355:3374   */\n      mstore\n        /* \"#utility.yul\":3407:3411   */\n      0x20\n        /* \"#utility.yul\":3402:3405   */\n      dup3\n        /* \"#utility.yul\":3398:3412   */\n      add\n        /* \"#utility.yul\":3383:3412   */\n      swap1\n      pop\n        /* \"#utility.yul\":3249:3418   */\n      swap3\n      swap2\n      pop\n      pop\n      jump\t// out\n        /* \"#utility.yul\":3424:3520   */\n    tag_95:\n        /* \"#utility.yul\":3461:3468   */\n      0x00\n        /* \"#utility.yul\":3490:3514   */\n      tag_97\n        /* \"#utility.yul\":3508:3513   */\n      dup3\n        /* \"#utility.yul\":3490:3514   */\n      tag_98\n      jump\t// in\n    tag_97:\n        /* \"#utility.yul\":3479:3514   */\n      swap1\n      pop\n        /* \"#utility.yul\":3424:3520   */\n      swap2\n      swap1\n      pop\n      jump\t// out\n        /* \"#utility.yul\":3526:3652   */\n    tag_98:\n        /* \"#utility.yul\":3563:3570   */\n      0x00\n        /* \"#utility.yul\":3603:3645   */\n      0xffffffffffffffffffffffffffffffffffffffff\n        /* \"#utility.yul\":3596:3601   */\n      dup3\n        /* \"#utility.yul\":3592:3646   */\n      and\n        /* \"#utility.yul\":3581:3646   */\n      swap1\n      pop\n        /* \"#utility.yul\":3526:3652   */\n      swap2\n      swap1\n      pop\n      jump\t// out\n        /* \"#utility.yul\":3658:3812   */\n    tag_46:\n        /* \"#utility.yul\":3742:3748   */\n      dup3\n        /* \"#utility.yul\":3737:3740   */\n      dup2\n        /* \"#utility.yul\":3732:3735   */\n      dup4\n        /* \"#utility.yul\":3719:3749   */\n      calldatacopy\n        /* \"#utility.yul\":3804:3805   */\n      0x00\n        /* \"#utility.yul\":3795:3801   */\n      dup4\n        /* \"#utility.yul\":3790:3793   */\n      dup4\n        /* \"#utility.yul\":3786:3802   */\n      add\n        /* \"#utility.yul\":3779:3806   */\n      mstore\n        /* \"#utility.yul\":3658:3812   */\n      pop\n      pop\n      pop\n      jump\t// out\n        /* \"#utility.yul\":3818:4125   */\n    tag_77:\n        /* \"#utility.yul\":3886:3887   */\n      0x00\n        /* \"#utility.yul\":3896:4009   */\n    tag_102:\n        /* \"#utility.yul\":3910:3916   */\n      dup4\n        /* \"#utility.yul\":3907:3908   */\n      dup2\n        /* \"#utility.yul\":3904:3917   */\n      lt\n        /* \"#utility.yul\":3896:4009   */\n      iszero\n      tag_104\n      jumpi\n        /* \"#utility.yul\":3995:3996   */\n      dup1\n        /* \"#utility.yul\":3990:3993   */\n      dup3\n        /* \"#utility.yul\":3986:3997   */\n      add\n        /* \"#utility.yul\":3980:3998   */\n      mload\n        /* \"#utility.yul\":3976:3977   */\n      dup2\n        /* \"#utility.yul\":3971:3974   */\n      dup5\n        /* \"#utility.yul\":3967:3978   */\n      add\n        /* \"#utility.yul\":3960:3999   */\n      mstore\n        /* \"#utility.yul\":3932:3934   */\n      0x20\n        /* \"#utility.yul\":3929:3930   */\n      dup2\n        /* \"#utility.yul\":3925:3935   */\n      add\n        /* \"#utility.yul\":3920:3935   */\n      swap1\n      pop\n        /* \"#utility.yul\":3896:4009   */\n      jump(tag_102)\n    tag_104:\n        /* \"#utility.yul\":4027:4033   */\n      dup4\n        /* \"#utility.yul\":4024:4025   */\n      dup2\n        /* \"#utility.yul\":4021:4034   */\n      gt\n        /* \"#utility.yul\":4018:4119   */\n      iszero\n      tag_105\n      jumpi\n        /* \"#utility.yul\":4107:4108   */\n      0x00\n        /* \"#utility.yul\":4098:4104   */\n      dup5\n        /* \"#utility.yul\":4093:4096   */\n      dup5\n        /* \"#utility.yul\":4089:4105   */\n      add\n        /* \"#utility.yul\":4082:4109   */\n      mstore\n        /* \"#utility.yul\":4018:4119   */\n    tag_105:\n        /* \"#utility.yul\":3867:4125   */\n      pop\n        /* \"#utility.yul\":3818:4125   */\n      pop\n      pop\n      pop\n      jump\t// out\n        /* \"#utility.yul\":4131:4451   */\n    tag_17:\n        /* \"#utility.yul\":4175:4181   */\n      0x00\n        /* \"#utility.yul\":4212:4213   */\n      0x02\n        /* \"#utility.yul\":4206:4210   */\n      dup3\n        /* \"#utility.yul\":4202:4214   */\n      div\n        /* \"#utility.yul\":4192:4214   */\n      swap1\n      pop\n        /* \"#utility.yul\":4259:4260   */\n      0x01\n        /* \"#utility.yul\":4253:4257   */\n      dup3\n        /* \"#utility.yul\":4249:4261   */\n      and\n        /* \"#utility.yul\":4280:4298   */\n      dup1\n        /* \"#utility.yul\":4270:4351   */\n      tag_107\n      jumpi\n        /* \"#utility.yul\":4336:4340   */\n      0x7f\n        /* \"#utility.yul\":4328:4334   */\n      dup3\n        /* \"#utility.yul\":4324:4341   */\n      and\n        /* \"#utility.yul\":4314:4341   */\n      swap2\n      pop\n        /* \"#utility.yul\":4270:4351   */\n    tag_107:\n        /* \"#utility.yul\":4398:4400   */\n      0x20\n        /* \"#utility.yul\":4390:4396   */\n      dup3\n        /* \"#utility.yul\":4387:4401   */\n      lt\n        /* \"#utility.yul\":4367:4385   */\n      dup2\n        /* \"#utility.yul\":4364:4402   */\n      eq\n        /* \"#utility.yul\":4361:4445   */\n      iszero\n      tag_108\n      jumpi\n        /* \"#utility.yul\":4417:4435   */\n      tag_109\n      tag_110\n      jump\t// in\n    tag_109:\n        /* \"#utility.yul\":4361:4445   */\n    tag_108:\n        /* \"#utility.yul\":4182:4451   */\n      pop\n        /* \"#utility.yul\":4131:4451   */\n      swap2\n      swap1\n      pop\n      jump\t// out\n        /* \"#utility.yul\":4457:4738   */\n    tag_86:\n        /* \"#utility.yul\":4540:4567   */\n      tag_112\n        /* \"#utility.yul\":4562:4566   */\n      dup3\n        /* \"#utility.yul\":4540:4567   */\n      tag_79\n      jump\t// in\n    tag_112:\n        /* \"#utility.yul\":4532:4538   */\n      dup2\n        /* \"#utility.yul\":4528:4568   */\n      add\n        /* \"#utility.yul\":4670:4676   */\n      dup2\n        /* \"#utility.yul\":4658:4668   */\n      dup2\n        /* \"#utility.yul\":4655:4677   */\n      lt\n        /* \"#utility.yul\":4634:4652   */\n      0xffffffffffffffff\n        /* \"#utility.yul\":4622:4632   */\n      dup3\n        /* \"#utility.yul\":4619:4653   */\n      gt\n        /* \"#utility.yul\":4616:4678   */\n      or\n        /* \"#utility.yul\":4613:4701   */\n      iszero\n      tag_113\n      jumpi\n        /* \"#utility.yul\":4681:4699   */\n      tag_114\n      tag_91\n      jump\t// in\n    tag_114:\n        /* \"#utility.yul\":4613:4701   */\n    tag_113:\n        /* \"#utility.yul\":4721:4731   */\n      dup1\n        /* \"#utility.yul\":4717:4719   */\n      0x40\n        /* \"#utility.yul\":4710:4732   */\n      mstore\n        /* \"#utility.yul\":4500:4738   */\n      pop\n        /* \"#utility.yul\":4457:4738   */\n      pop\n      pop\n      jump\t// out\n        /* \"#utility.yul\":4744:4924   */\n    tag_110:\n        /* \"#utility.yul\":4792:4869   */\n      0x4e487b7100000000000000000000000000000000000000000000000000000000\n        /* \"#utility.yul\":4789:4790   */\n      0x00\n        /* \"#utility.yul\":4782:4870   */\n      mstore\n        /* \"#utility.yul\":4889:4893   */\n      0x22\n        /* \"#utility.yul\":4886:4887   */\n      0x04\n        /* \"#utility.yul\":4879:4894   */\n      mstore\n        /* \"#utility.yul\":4913:4917   */\n      0x24\n        /* \"#utility.yul\":4910:4911   */\n      0x00\n        /* \"#utility.yul\":4903:4918   */\n      revert\n        /* \"#utility.yul\":4930:5110   */\n    tag_91:\n        /* \"#utility.yul\":4978:5055   */\n      0x4e487b7100000000000000000000000000000000000000000000000000000000\n        /* \"#utility.yul\":4975:4976   */\n      0x00\n        /* \"#utility.yul\":4968:5056   */\n      mstore\n        /* \"#utility.yul\":5075:5079   */\n      0x41\n        /* \"#utility.yul\":5072:5073   */\n      0x04\n        /* \"#utility.yul\":5065:5080   */\n      mstore\n        /* \"#utility.yul\":5099:5103   */\n      0x24\n        /* \"#utility.yul\":5096:5097   */\n      0x00\n        /* \"#utility.yul\":5089:5104   */\n      revert\n        /* \"#utility.yul\":5116:5233   */\n    tag_55:\n        /* \"#utility.yul\":5225:5226   */\n      0x00\n        /* \"#utility.yul\":5222:5223   */\n      dup1\n        /* \"#utility.yul\":5215:5227   */\n      revert\n        /* \"#utility.yul\":5239:5356   */\n    tag_44:\n        /* \"#utility.yul\":5348:5349   */\n      0x00\n        /* \"#utility.yul\":5345:5346   */\n      dup1\n        /* \"#utility.yul\":5338:5350   */\n      revert\n        /* \"#utility.yul\":5362:5479   */\n    tag_68:\n        /* \"#utility.yul\":5471:5472   */\n      0x00\n        /* \"#utility.yul\":5468:5469   */\n      dup1\n        /* \"#utility.yul\":5461:5473   */\n      revert\n        /* \"#utility.yul\":5485:5602   */\n    tag_60:\n        /* \"#utility.yul\":5594:5595   */\n      0x00\n        /* \"#utility.yul\":5591:5592   */\n      dup1\n        /* \"#utility.yul\":5584:5596   */\n      revert\n        /* \"#utility.yul\":5608:5710   */\n    tag_79:\n        /* \"#utility.yul\":5649:5655   */\n      0x00\n        /* \"#utility.yul\":5700:5702   */\n      0x1f\n        /* \"#utility.yul\":5696:5703   */\n      not\n        /* \"#utility.yul\":5691:5693   */\n      0x1f\n        /* \"#utility.yul\":5684:5689   */\n      dup4\n        /* \"#utility.yul\":5680:5694   */\n      add\n        /* \"#utility.yul\":5676:5704   */\n      and\n        /* \"#utility.yul\":5666:5704   */\n      swap1\n      pop\n        /* \"#utility.yul\":5608:5710   */\n      swap2\n      swap1\n      pop\n      jump\t// out\n        /* \"#utility.yul\":5716:5838   */\n    tag_50:\n        /* \"#utility.yul\":5789:5813   */\n      tag_123\n        /* \"#utility.yul\":5807:5812   */\n      dup2\n        /* \"#utility.yul\":5789:5813   */\n      tag_95\n      jump\t// in\n    tag_123:\n        /* \"#utility.yul\":5782:5787   */\n      dup2\n        /* \"#utility.yul\":5779:5814   */\n      eq\n        /* \"#utility.yul\":5769:5832   */\n      tag_124\n      jumpi\n        /* \"#utility.yul\":5828:5829   */\n      0x00\n        /* \"#utility.yul\":5825:5826   */\n      dup1\n        /* \"#utility.yul\":5818:5830   */\n      revert\n        /* \"#utility.yul\":5769:5832   */\n    tag_124:\n        /* \"#utility.yul\":5716:5838   */\n      pop\n      jump\t// out\n\n    auxdata: 0xa26469706673582212208ffa400cc779cb95c88172c73d3a920a7fa5c02d6a822874b5ffa879a2e17bdf64736f6c63430008070033\n}\n",
				"bytecode": {
					"linkReferences": {},
					"object": "608060405234801561001057600080fd5b506105d3806100206000396000f3fe608060405234801561001057600080fd5b50600436106100365760003560e01c80631947bd2f1461003b578063d69485281461006b575b600080fd5b610055600480360381019061005091906102d6565b610087565b6040516100629190610398565b60405180910390f35b61008560048036038101906100809190610303565b610157565b005b60606000808373ffffffffffffffffffffffffffffffffffffffff1673ffffffffffffffffffffffffffffffffffffffff16815260200190815260200160002080546100d2906104a0565b80601f01602080910402602001604051908101604052809291908181526020018280546100fe906104a0565b801561014b5780601f106101205761010080835404028352916020019161014b565b820191906000526020600020905b81548152906001019060200180831161012e57829003601f168201915b50505050509050919050565b806000808473ffffffffffffffffffffffffffffffffffffffff1673ffffffffffffffffffffffffffffffffffffffff16815260200190815260200160002090805190602001906101a99291906101ae565b505050565b8280546101ba906104a0565b90600052602060002090601f0160209004810192826101dc5760008555610223565b82601f106101f557805160ff1916838001178555610223565b82800160010185558215610223579182015b82811115610222578251825591602001919060010190610207565b5b5090506102309190610234565b5090565b5b8082111561024d576000816000905550600101610235565b5090565b600061026461025f846103df565b6103ba565b9050828152602081018484840111156102805761027f610566565b5b61028b84828561045e565b509392505050565b6000813590506102a281610586565b92915050565b600082601f8301126102bd576102bc610561565b5b81356102cd848260208601610251565b91505092915050565b6000602082840312156102ec576102eb610570565b5b60006102fa84828501610293565b91505092915050565b6000806040838503121561031a57610319610570565b5b600061032885828601610293565b925050602083013567ffffffffffffffff8111156103495761034861056b565b5b610355858286016102a8565b9150509250929050565b600061036a82610410565b610374818561041b565b935061038481856020860161046d565b61038d81610575565b840191505092915050565b600060208201905081810360008301526103b2818461035f565b905092915050565b60006103c46103d5565b90506103d082826104d2565b919050565b6000604051905090565b600067ffffffffffffffff8211156103fa576103f9610532565b5b61040382610575565b9050602081019050919050565b600081519050919050565b600082825260208201905092915050565b60006104378261043e565b9050919050565b600073ffffffffffffffffffffffffffffffffffffffff82169050919050565b82818337600083830152505050565b60005b8381101561048b578082015181840152602081019050610470565b8381111561049a576000848401525b50505050565b600060028204905060018216806104b857607f821691505b602082108114156104cc576104cb610503565b5b50919050565b6104db82610575565b810181811067ffffffffffffffff821117156104fa576104f9610532565b5b80604052505050565b7f4e487b7100000000000000000000000000000000000000000000000000000000600052602260045260246000fd5b7f4e487b7100000000000000000000000000000000000000000000000000000000600052604160045260246000fd5b600080fd5b600080fd5b600080fd5b600080fd5b6000601f19601f8301169050919050565b61058f8161042c565b811461059a57600080fd5b5056fea26469706673582212208ffa400cc779cb95c88172c73d3a920a7fa5c02d6a822874b5ffa879a2e17bdf64736f6c63430008070033",
					"opcodes": "PUSH1 0x80 PUSH1 0x40 MSTORE CALLVALUE DUP1 ISZERO PUSH2 0x10 JUMPI PUSH1 0x0 DUP1 REVERT JUMPDEST POP PUSH2 0x5D3 DUP1 PUSH2 0x20 PUSH1 0x0 CODECOPY PUSH1 0x0 RETURN INVALID PUSH1 0x80 PUSH1 0x40 MSTORE CALLVALUE DUP1 ISZERO PUSH2 0x10 JUMPI PUSH1 0x0 DUP1 REVERT JUMPDEST POP PUSH1 0x4 CALLDATASIZE LT PUSH2 0x36 JUMPI PUSH1 0x0 CALLDATALOAD PUSH1 0xE0 SHR DUP1 PUSH4 0x1947BD2F EQ PUSH2 0x3B JUMPI DUP1 PUSH4 0xD6948528 EQ PUSH2 0x6B JUMPI JUMPDEST PUSH1 0x0 DUP1 REVERT JUMPDEST PUSH2 0x55 PUSH1 0x4 DUP1 CALLDATASIZE SUB DUP2 ADD SWAP1 PUSH2 0x50 SWAP2 SWAP1 PUSH2 0x2D6 JUMP JUMPDEST PUSH2 0x87 JUMP JUMPDEST PUSH1 0x40 MLOAD PUSH2 0x62 SWAP2 SWAP1 PUSH2 0x398 JUMP JUMPDEST PUSH1 0x40 MLOAD DUP1 SWAP2 SUB SWAP1 RETURN JUMPDEST PUSH2 0x85 PUSH1 0x4 DUP1 CALLDATASIZE SUB DUP2 ADD SWAP1 PUSH2 0x80 SWAP2 SWAP1 PUSH2 0x303 JUMP JUMPDEST PUSH2 0x157 JUMP JUMPDEST STOP JUMPDEST PUSH1 0x60 PUSH1 0x0 DUP1 DUP4 PUSH20 0xFFFFFFFFFFFFFFFFFFFFFFFFFFFFFFFFFFFFFFFF AND PUSH20 0xFFFFFFFFFFFFFFFFFFFFFFFFFFFFFFFFFFFFFFFF AND DUP2 MSTORE PUSH1 0x20 ADD SWAP1 DUP2 MSTORE PUSH1 0x20 ADD PUSH1 0x0 KECCAK256 DUP1 SLOAD PUSH2 0xD2 SWAP1 PUSH2 0x4A0 JUMP JUMPDEST DUP1 PUSH1 0x1F ADD PUSH1 0x20 DUP1 SWAP2 DIV MUL PUSH1 0x20 ADD PUSH1 0x40 MLOAD SWAP1 DUP2 ADD PUSH1 0x40 MSTORE DUP1 SWAP3 SWAP2 SWAP1 DUP2 DUP2 MSTORE PUSH1 0x20 ADD DUP3 DUP1 SLOAD PUSH2 0xFE SWAP1 PUSH2 0x4A0 JUMP JUMPDEST DUP1 ISZERO PUSH2 0x14B JUMPI DUP1 PUSH1 0x1F LT PUSH2 0x120 JUMPI PUSH2 0x100 DUP1 DUP4 SLOAD DIV MUL DUP4 MSTORE SWAP2 PUSH1 0x20 ADD SWAP2 PUSH2 0x14B JUMP JUMPDEST DUP3 ADD SWAP2 SWAP1 PUSH1 0x0 MSTORE PUSH1 0x20 PUSH1 0x0 KECCAK256 SWAP1 JUMPDEST DUP2 SLOAD DUP2 MSTORE SWAP1 PUSH1 0x1 ADD SWAP1 PUSH1 0x20 ADD DUP1 DUP4 GT PUSH2 0x12E JUMPI DUP3 SWAP1 SUB PUSH1 0x1F AND DUP3 ADD SWAP2 JUMPDEST POP POP POP POP POP SWAP1 POP SWAP2 SWAP1 POP JUMP JUMPDEST DUP1 PUSH1 0x0 DUP1 DUP5 PUSH20 0xFFFFFFFFFFFFFFFFFFFFFFFFFFFFFFFFFFFFFFFF AND PUSH20 0xFFFFFFFFFFFFFFFFFFFFFFFFFFFFFFFFFFFFFFFF AND DUP2 MSTORE PUSH1 0x20 ADD SWAP1 DUP2 MSTORE PUSH1 0x20 ADD PUSH1 0x0 KECCAK256 SWAP1 DUP1 MLOAD SWAP1 PUSH1 0x20 ADD SWAP1 PUSH2 0x1A9 SWAP3 SWAP2 SWAP1 PUSH2 0x1AE JUMP JUMPDEST POP POP POP JUMP JUMPDEST DUP3 DUP1 SLOAD PUSH2 0x1BA SWAP1 PUSH2 0x4A0 JUMP JUMPDEST SWAP1 PUSH1 0x0 MSTORE PUSH1 0x20 PUSH1 0x0 KECCAK256 SWAP1 PUSH1 0x1F ADD PUSH1 0x20 SWAP1 DIV DUP2 ADD SWAP3 DUP3 PUSH2 0x1DC JUMPI PUSH1 0x0 DUP6 SSTORE PUSH2 0x223 JUMP JUMPDEST DUP3 PUSH1 0x1F LT PUSH2 0x1F5 JUMPI DUP1 MLOAD PUSH1 0xFF NOT AND DUP4 DUP1 ADD OR DUP6 SSTORE PUSH2 0x223 JUMP JUMPDEST DUP3 DUP1 ADD PUSH1 0x1 ADD DUP6 SSTORE DUP3 ISZERO PUSH2 0x223 JUMPI SWAP2 DUP3 ADD JUMPDEST DUP3 DUP2 GT ISZERO PUSH2 0x222 JUMPI DUP3 MLOAD DUP3 SSTORE SWAP2 PUSH1 0x20 ADD SWAP2 SWAP1 PUSH1 0x1 ADD SWAP1 PUSH2 0x207 JUMP JUMPDEST JUMPDEST POP SWAP1 POP PUSH2 0x230 SWAP2 SWAP1 PUSH2 0x234 JUMP JUMPDEST POP SWAP1 JUMP JUMPDEST JUMPDEST DUP1 DUP3 GT ISZERO PUSH2 0x24D JUMPI PUSH1 0x0 DUP2 PUSH1 0x0 SWAP1 SSTORE POP PUSH1 0x1 ADD PUSH2 0x235 JUMP JUMPDEST POP SWAP1 JUMP JUMPDEST PUSH1 0x0 PUSH2 0x264 PUSH2 0x25F DUP5 PUSH2 0x3DF JUMP JUMPDEST PUSH2 0x3BA JUMP JUMPDEST SWAP1 POP DUP3 DUP2 MSTORE PUSH1 0x20 DUP2 ADD DUP5 DUP5 DUP5 ADD GT ISZERO PUSH2 0x280 JUMPI PUSH2 0x27F PUSH2 0x566 JUMP JUMPDEST JUMPDEST PUSH2 0x28B DUP5 DUP3 DUP6 PUSH2 0x45E JUMP JUMPDEST POP SWAP4 SWAP3 POP POP POP JUMP JUMPDEST PUSH1 0x0 DUP2 CALLDATALOAD SWAP1 POP PUSH2 0x2A2 DUP2 PUSH2 0x586 JUMP JUMPDEST SWAP3 SWAP2 POP POP JUMP JUMPDEST PUSH1 0x0 DUP3 PUSH1 0x1F DUP4 ADD SLT PUSH2 0x2BD JUMPI PUSH2 0x2BC PUSH2 0x561 JUMP JUMPDEST JUMPDEST DUP2 CALLDATALOAD PUSH2 0x2CD DUP5 DUP3 PUSH1 0x20 DUP7 ADD PUSH2 0x251 JUMP JUMPDEST SWAP2 POP POP SWAP3 SWAP2 POP POP JUMP JUMPDEST PUSH1 0x0 PUSH1 0x20 DUP3 DUP5 SUB SLT ISZERO PUSH2 0x2EC JUMPI PUSH2 0x2EB PUSH2 0x570 JUMP JUMPDEST JUMPDEST PUSH1 0x0 PUSH2 0x2FA DUP5 DUP3 DUP6 ADD PUSH2 0x293 JUMP JUMPDEST SWAP2 POP POP SWAP3 SWAP2 POP POP JUMP JUMPDEST PUSH1 0x0 DUP1 PUSH1 0x40 DUP4 DUP6 SUB SLT ISZERO PUSH2 0x31A JUMPI PUSH2 0x319 PUSH2 0x570 JUMP JUMPDEST JUMPDEST PUSH1 0x0 PUSH2 0x328 DUP6 DUP3 DUP7 ADD PUSH2 0x293 JUMP JUMPDEST SWAP3 POP POP PUSH1 0x20 DUP4 ADD CALLDATALOAD PUSH8 0xFFFFFFFFFFFFFFFF DUP2 GT ISZERO PUSH2 0x349 JUMPI PUSH2 0x348 PUSH2 0x56B JUMP JUMPDEST JUMPDEST PUSH2 0x355 DUP6 DUP3 DUP7 ADD PUSH2 0x2A8 JUMP JUMPDEST SWAP2 POP POP SWAP3 POP SWAP3 SWAP1 POP JUMP JUMPDEST PUSH1 0x0 PUSH2 0x36A DUP3 PUSH2 0x410 JUMP JUMPDEST PUSH2 0x374 DUP2 DUP6 PUSH2 0x41B JUMP JUMPDEST SWAP4 POP PUSH2 0x384 DUP2 DUP6 PUSH1 0x20 DUP7 ADD PUSH2 0x46D JUMP JUMPDEST PUSH2 0x38D DUP2 PUSH2 0x575 JUMP JUMPDEST DUP5 ADD SWAP2 POP POP SWAP3 SWAP2 POP POP JUMP JUMPDEST PUSH1 0x0 PUSH1 0x20 DUP3 ADD SWAP1 POP DUP2 DUP2 SUB PUSH1 0x0 DUP4 ADD MSTORE PUSH2 0x3B2 DUP2 DUP5 PUSH2 0x35F JUMP JUMPDEST SWAP1 POP SWAP3 SWAP2 POP POP JUMP JUMPDEST PUSH1 0x0 PUSH2 0x3C4 PUSH2 0x3D5 JUMP JUMPDEST SWAP1 POP PUSH2 0x3D0 DUP3 DUP3 PUSH2 0x4D2 JUMP JUMPDEST SWAP2 SWAP1 POP JUMP JUMPDEST PUSH1 0x0 PUSH1 0x40 MLOAD SWAP1 POP SWAP1 JUMP JUMPDEST PUSH1 0x0 PUSH8 0xFFFFFFFFFFFFFFFF DUP3 GT ISZERO PUSH2 0x3FA JUMPI PUSH2 0x3F9 PUSH2 0x532 JUMP JUMPDEST JUMPDEST PUSH2 0x403 DUP3 PUSH2 0x575 JUMP JUMPDEST SWAP1 POP PUSH1 0x20 DUP2 ADD SWAP1 POP SWAP2 SWAP1 POP JUMP JUMPDEST PUSH1 0x0 DUP2 MLOAD SWAP1 POP SWAP2 SWAP1 POP JUMP JUMPDEST PUSH1 0x0 DUP3 DUP3 MSTORE PUSH1 0x20 DUP3 ADD SWAP1 POP SWAP3 SWAP2 POP POP JUMP JUMPDEST PUSH1 0x0 PUSH2 0x437 DUP3 PUSH2 0x43E JUMP JUMPDEST SWAP1 POP SWAP2 SWAP1 POP JUMP JUMPDEST PUSH1 0x0 PUSH20 0xFFFFFFFFFFFFFFFFFFFFFFFFFFFFFFFFFFFFFFFF DUP3 AND SWAP1 POP SWAP2 SWAP1 POP JUMP JUMPDEST DUP3 DUP2 DUP4 CALLDATACOPY PUSH1 0x0 DUP4 DUP4 ADD MSTORE POP POP POP JUMP JUMPDEST PUSH1 0x0 JUMPDEST DUP4 DUP2 LT ISZERO PUSH2 0x48B JUMPI DUP1 DUP3 ADD MLOAD DUP2 DUP5 ADD MSTORE PUSH1 0x20 DUP2 ADD SWAP1 POP PUSH2 0x470 JUMP JUMPDEST DUP4 DUP2 GT ISZERO PUSH2 0x49A JUMPI PUSH1 0x0 DUP5 DUP5 ADD MSTORE JUMPDEST POP POP POP POP JUMP JUMPDEST PUSH1 0x0 PUSH1 0x2 DUP3 DIV SWAP1 POP PUSH1 0x1 DUP3 AND DUP1 PUSH2 0x4B8 JUMPI PUSH1 0x7F DUP3 AND SWAP2 POP JUMPDEST PUSH1 0x20 DUP3 LT DUP2 EQ ISZERO PUSH2 0x4CC JUMPI PUSH2 0x4CB PUSH2 0x503 JUMP JUMPDEST JUMPDEST POP SWAP2 SWAP1 POP JUMP JUMPDEST PUSH2 0x4DB DUP3 PUSH2 0x575 JUMP JUMPDEST DUP2 ADD DUP2 DUP2 LT PUSH8 0xFFFFFFFFFFFFFFFF DUP3 GT OR ISZERO PUSH2 0x4FA JUMPI PUSH2 0x4F9 PUSH2 0x532 JUMP JUMPDEST JUMPDEST DUP1 PUSH1 0x40 MSTORE POP POP POP JUMP JUMPDEST PUSH32 0x4E487B7100000000000000000000000000000000000000000000000000000000 PUSH1 0x0 MSTORE PUSH1 0x22 PUSH1 0x4 MSTORE PUSH1 0x24 PUSH1 0x0 REVERT JUMPDEST PUSH32 0x4E487B7100000000000000000000000000000000000000000000000000000000 PUSH1 0x0 MSTORE PUSH1 0x41 PUSH1 0x4 MSTORE PUSH1 0x24 PUSH1 0x0 REVERT JUMPDEST PUSH1 0x0 DUP1 REVERT JUMPDEST PUSH1 0x0 DUP1 REVERT JUMPDEST PUSH1 0x0 DUP1 REVERT JUMPDEST PUSH1 0x0 DUP1 REVERT JUMPDEST PUSH1 0x0 PUSH1 0x1F NOT PUSH1 0x1F DUP4 ADD AND SWAP1 POP SWAP2 SWAP1 POP JUMP JUMPDEST PUSH2 0x58F DUP2 PUSH2 0x42C JUMP JUMPDEST DUP2 EQ PUSH2 0x59A JUMPI PUSH1 0x0 DUP1 REVERT JUMPDEST POP JUMP INVALID LOG2 PUSH5 0x6970667358 0x22 SLT KECCAK256 DUP16 STATICCALL BLOCKHASH 0xC 0xC7 PUSH26 0xCB95C88172C73D3A920A7FA5C02D6A822874B5FFA879A2E17BDF PUSH5 0x736F6C6343 STOP ADDMOD SMOD STOP CALLER "
				},
				"gasEstimates": {
					"creation": {
						"codeDepositCost": "298200",
						"executionCost": "337",
						"totalCost": "298537"
					},
					"external": {
						"getMap(address)": "infinite",
						"setMap(address,string)": "infinite"
					}
				},
				"methodIdentifiers": {
					"getMap(address)": "1947bd2f",
					"setMap(address,string)": "d6948528"
				}
			},
			"storageLayout": {
				"storage": [
					{
						"astId": 5,
						"contract": "contracts/Map.sol:Map",
						"label": "addressMap",
						"offset": 0,
						"slot": "0",
						"type": "t_mapping(t_address,t_string_storage)"
					}
				],
				"types": {
					"t_address": {
						"encoding": "inplace",
						"label": "address",
						"numberOfBytes": "20"
					},
					"t_mapping(t_address,t_string_storage)": {
						"encoding": "mapping",
						"key": "t_address",
						"label": "mapping(address => string)",
						"numberOfBytes": "32",
						"value": "t_string_storage"
					},
					"t_string_storage": {
						"encoding": "bytes",
						"label": "string",
						"numberOfBytes": "32"
					}
				}
			},
			"userdoc": {
				"kind": "user",
				"methods": {},
				"version": 1
			}
		}
	}
}