{
	"contracts/Loops.sol": {
		"Loop": {
			"abi": [
				{
					"inputs": [],
					"name": "iterateArray",
					"outputs": [
						{
							"internalType": "uint256[]",
							"name": "",
							"type": "uint256[]"
						}
					],
					"stateMutability": "nonpayable",
					"type": "function"
				}
			],
			"devdoc": {
				"kind": "dev",
				"methods": {},
				"version": 1
			},
			"evm": {
				"assembly": "    /* \"contracts/Loops.sol\":55:332  contract Loop{... */\n  mstore(0x40, 0x80)\n    /* \"contracts/Loops.sol\":151:152  0 */\n  0x00\n    /* \"contracts/Loops.sol\":141:152  uint8 i = 0 */\n  0x01\n  exp(0x0100, 0x00)\n  dup2\n  sload\n  dup2\n  0xff\n  mul\n  not\n  and\n  swap1\n  dup4\n  0xff\n  and\n  mul\n  or\n  swap1\n  sstore\n  pop\n    /* \"contracts/Loops.sol\":55:332  contract Loop{... */\n  callvalue\n  dup1\n  iszero\n  tag_1\n  jumpi\n  0x00\n  dup1\n  revert\ntag_1:\n  pop\n  dataSize(sub_0)\n  dup1\n  dataOffset(sub_0)\n  0x00\n  codecopy\n  0x00\n  return\nstop\n\nsub_0: assembly {\n        /* \"contracts/Loops.sol\":55:332  contract Loop{... */\n      mstore(0x40, 0x80)\n      callvalue\n      dup1\n      iszero\n      tag_1\n      jumpi\n      0x00\n      dup1\n      revert\n    tag_1:\n      pop\n      jumpi(tag_2, lt(calldatasize, 0x04))\n      shr(0xe0, calldataload(0x00))\n      dup1\n      0xd2c54fa2\n      eq\n      tag_3\n      jumpi\n    tag_2:\n      0x00\n      dup1\n      revert\n        /* \"contracts/Loops.sol\":163:324  function iterateArray() public returns(uint[] memory){... */\n    tag_3:\n      tag_4\n      tag_5\n      jump\t// in\n    tag_4:\n      mload(0x40)\n      tag_6\n      swap2\n      swap1\n      tag_7\n      jump\t// in\n    tag_6:\n      mload(0x40)\n      dup1\n      swap2\n      sub\n      swap1\n      return\n    tag_5:\n        /* \"contracts/Loops.sol\":202:215  uint[] memory */\n      0x60\n        /* \"contracts/Loops.sol\":227:296  while(i<10){... */\n    tag_9:\n        /* \"contracts/Loops.sol\":235:237  10 */\n      0x0a\n        /* \"contracts/Loops.sol\":233:234  i */\n      0x01\n      0x00\n      swap1\n      sload\n      swap1\n      0x0100\n      exp\n      swap1\n      div\n      0xff\n      and\n        /* \"contracts/Loops.sol\":233:237  i<10 */\n      0xff\n      and\n      lt\n        /* \"contracts/Loops.sol\":227:296  while(i<10){... */\n      iszero\n      tag_10\n      jumpi\n        /* \"contracts/Loops.sol\":252:257  array */\n      0x00\n        /* \"contracts/Loops.sol\":265:267  10 */\n      0x0a\n        /* \"contracts/Loops.sol\":263:264  i */\n      0x01\n      0x00\n      swap1\n      sload\n      swap1\n      0x0100\n      exp\n      swap1\n      div\n      0xff\n      and\n        /* \"contracts/Loops.sol\":263:267  i*10 */\n      tag_11\n      swap2\n      swap1\n      tag_12\n      jump\t// in\n    tag_11:\n        /* \"contracts/Loops.sol\":252:268  array.push(i*10) */\n      swap1\n      dup1\n      0x01\n      dup2\n      sload\n      add\n      dup1\n      dup3\n      sstore\n      dup1\n      swap2\n      pop\n      pop\n      0x01\n      swap1\n      sub\n      swap1\n      0x00\n      mstore\n      keccak256(0x00, 0x20)\n      add\n      0x00\n      swap1\n      swap2\n      0xff\n      and\n      swap1\n      swap2\n      swap1\n      swap2\n      pop\n      sstore\n        /* \"contracts/Loops.sol\":282:283  i */\n      0x01\n      0x00\n        /* \"contracts/Loops.sol\":282:285  i++ */\n      dup2\n      dup2\n      swap1\n      sload\n      swap1\n      0x0100\n      exp\n      swap1\n      div\n      0xff\n      and\n      dup1\n      swap3\n      swap2\n      swap1\n      tag_14\n      swap1\n      tag_15\n      jump\t// in\n    tag_14:\n      swap2\n      swap1\n      0x0100\n      exp\n      dup2\n      sload\n      dup2\n      0xff\n      mul\n      not\n      and\n      swap1\n      dup4\n      0xff\n      and\n      mul\n      or\n      swap1\n      sstore\n      pop\n      pop\n        /* \"contracts/Loops.sol\":227:296  while(i<10){... */\n      jump(tag_9)\n    tag_10:\n        /* \"contracts/Loops.sol\":312:317  array */\n      0x00\n        /* \"contracts/Loops.sol\":305:317  return array */\n      dup1\n      sload\n      dup1\n      0x20\n      mul\n      0x20\n      add\n      mload(0x40)\n      swap1\n      dup2\n      add\n      0x40\n      mstore\n      dup1\n      swap3\n      swap2\n      swap1\n      dup2\n      dup2\n      mstore\n      0x20\n      add\n      dup3\n      dup1\n      sload\n      dup1\n      iszero\n      tag_16\n      jumpi\n      0x20\n      mul\n      dup3\n      add\n      swap2\n      swap1\n      0x00\n      mstore\n      keccak256(0x00, 0x20)\n      swap1\n    tag_17:\n      dup2\n      sload\n      dup2\n      mstore\n      0x20\n      add\n      swap1\n      0x01\n      add\n      swap1\n      dup1\n      dup4\n      gt\n      tag_17\n      jumpi\n    tag_16:\n      pop\n      pop\n      pop\n      pop\n      pop\n      swap1\n      pop\n        /* \"contracts/Loops.sol\":163:324  function iterateArray() public returns(uint[] memory){... */\n      swap1\n      jump\t// out\n        /* \"#utility.yul\":7:186   */\n    tag_19:\n        /* \"#utility.yul\":76:86   */\n      0x00\n        /* \"#utility.yul\":97:143   */\n      tag_21\n        /* \"#utility.yul\":139:142   */\n      dup4\n        /* \"#utility.yul\":131:137   */\n      dup4\n        /* \"#utility.yul\":97:143   */\n      tag_22\n      jump\t// in\n    tag_21:\n        /* \"#utility.yul\":175:179   */\n      0x20\n        /* \"#utility.yul\":170:173   */\n      dup4\n        /* \"#utility.yul\":166:180   */\n      add\n        /* \"#utility.yul\":152:180   */\n      swap1\n      pop\n        /* \"#utility.yul\":7:186   */\n      swap3\n      swap2\n      pop\n      pop\n      jump\t// out\n        /* \"#utility.yul\":222:954   */\n    tag_23:\n        /* \"#utility.yul\":341:344   */\n      0x00\n        /* \"#utility.yul\":370:424   */\n      tag_25\n        /* \"#utility.yul\":418:423   */\n      dup3\n        /* \"#utility.yul\":370:424   */\n      tag_26\n      jump\t// in\n    tag_25:\n        /* \"#utility.yul\":440:526   */\n      tag_27\n        /* \"#utility.yul\":519:525   */\n      dup2\n        /* \"#utility.yul\":514:517   */\n      dup6\n        /* \"#utility.yul\":440:526   */\n      tag_28\n      jump\t// in\n    tag_27:\n        /* \"#utility.yul\":433:526   */\n      swap4\n      pop\n        /* \"#utility.yul\":550:606   */\n      tag_29\n        /* \"#utility.yul\":600:605   */\n      dup4\n        /* \"#utility.yul\":550:606   */\n      tag_30\n      jump\t// in\n    tag_29:\n        /* \"#utility.yul\":629:636   */\n      dup1\n        /* \"#utility.yul\":660:661   */\n      0x00\n        /* \"#utility.yul\":645:929   */\n    tag_31:\n        /* \"#utility.yul\":670:676   */\n      dup4\n        /* \"#utility.yul\":667:668   */\n      dup2\n        /* \"#utility.yul\":664:677   */\n      lt\n        /* \"#utility.yul\":645:929   */\n      iszero\n      tag_33\n      jumpi\n        /* \"#utility.yul\":746:752   */\n      dup2\n        /* \"#utility.yul\":740:753   */\n      mload\n        /* \"#utility.yul\":773:836   */\n      tag_34\n        /* \"#utility.yul\":832:835   */\n      dup9\n        /* \"#utility.yul\":817:830   */\n      dup3\n        /* \"#utility.yul\":773:836   */\n      tag_19\n      jump\t// in\n    tag_34:\n        /* \"#utility.yul\":766:836   */\n      swap8\n      pop\n        /* \"#utility.yul\":859:919   */\n      tag_35\n        /* \"#utility.yul\":912:918   */\n      dup4\n        /* \"#utility.yul\":859:919   */\n      tag_36\n      jump\t// in\n    tag_35:\n        /* \"#utility.yul\":849:919   */\n      swap3\n      pop\n        /* \"#utility.yul\":705:929   */\n      pop\n        /* \"#utility.yul\":692:693   */\n      0x01\n        /* \"#utility.yul\":689:690   */\n      dup2\n        /* \"#utility.yul\":685:694   */\n      add\n        /* \"#utility.yul\":680:694   */\n      swap1\n      pop\n        /* \"#utility.yul\":645:929   */\n      jump(tag_31)\n    tag_33:\n        /* \"#utility.yul\":649:663   */\n      pop\n        /* \"#utility.yul\":945:948   */\n      dup6\n        /* \"#utility.yul\":938:948   */\n      swap4\n      pop\n        /* \"#utility.yul\":346:954   */\n      pop\n      pop\n      pop\n        /* \"#utility.yul\":222:954   */\n      swap3\n      swap2\n      pop\n      pop\n      jump\t// out\n        /* \"#utility.yul\":960:1068   */\n    tag_22:\n        /* \"#utility.yul\":1037:1061   */\n      tag_38\n        /* \"#utility.yul\":1055:1060   */\n      dup2\n        /* \"#utility.yul\":1037:1061   */\n      tag_39\n      jump\t// in\n    tag_38:\n        /* \"#utility.yul\":1032:1035   */\n      dup3\n        /* \"#utility.yul\":1025:1062   */\n      mstore\n        /* \"#utility.yul\":960:1068   */\n      pop\n      pop\n      jump\t// out\n        /* \"#utility.yul\":1074:1447   */\n    tag_7:\n        /* \"#utility.yul\":1217:1221   */\n      0x00\n        /* \"#utility.yul\":1255:1257   */\n      0x20\n        /* \"#utility.yul\":1244:1253   */\n      dup3\n        /* \"#utility.yul\":1240:1258   */\n      add\n        /* \"#utility.yul\":1232:1258   */\n      swap1\n      pop\n        /* \"#utility.yul\":1304:1313   */\n      dup2\n        /* \"#utility.yul\":1298:1302   */\n      dup2\n        /* \"#utility.yul\":1294:1314   */\n      sub\n        /* \"#utility.yul\":1290:1291   */\n      0x00\n        /* \"#utility.yul\":1279:1288   */\n      dup4\n        /* \"#utility.yul\":1275:1292   */\n      add\n        /* \"#utility.yul\":1268:1315   */\n      mstore\n        /* \"#utility.yul\":1332:1440   */\n      tag_41\n        /* \"#utility.yul\":1435:1439   */\n      dup2\n        /* \"#utility.yul\":1426:1432   */\n      dup5\n        /* \"#utility.yul\":1332:1440   */\n      tag_23\n      jump\t// in\n    tag_41:\n        /* \"#utility.yul\":1324:1440   */\n      swap1\n      pop\n        /* \"#utility.yul\":1074:1447   */\n      swap3\n      swap2\n      pop\n      pop\n      jump\t// out\n        /* \"#utility.yul\":1453:1585   */\n    tag_30:\n        /* \"#utility.yul\":1520:1524   */\n      0x00\n        /* \"#utility.yul\":1543:1546   */\n      dup2\n        /* \"#utility.yul\":1535:1546   */\n      swap1\n      pop\n        /* \"#utility.yul\":1573:1577   */\n      0x20\n        /* \"#utility.yul\":1568:1571   */\n      dup3\n        /* \"#utility.yul\":1564:1578   */\n      add\n        /* \"#utility.yul\":1556:1578   */\n      swap1\n      pop\n        /* \"#utility.yul\":1453:1585   */\n      swap2\n      swap1\n      pop\n      jump\t// out\n        /* \"#utility.yul\":1591:1705   */\n    tag_26:\n        /* \"#utility.yul\":1658:1664   */\n      0x00\n        /* \"#utility.yul\":1692:1697   */\n      dup2\n        /* \"#utility.yul\":1686:1698   */\n      mload\n        /* \"#utility.yul\":1676:1698   */\n      swap1\n      pop\n        /* \"#utility.yul\":1591:1705   */\n      swap2\n      swap1\n      pop\n      jump\t// out\n        /* \"#utility.yul\":1711:1824   */\n    tag_36:\n        /* \"#utility.yul\":1781:1785   */\n      0x00\n        /* \"#utility.yul\":1813:1817   */\n      0x20\n        /* \"#utility.yul\":1808:1811   */\n      dup3\n        /* \"#utility.yul\":1804:1818   */\n      add\n        /* \"#utility.yul\":1796:1818   */\n      swap1\n      pop\n        /* \"#utility.yul\":1711:1824   */\n      swap2\n      swap1\n      pop\n      jump\t// out\n        /* \"#utility.yul\":1830:2014   */\n    tag_28:\n        /* \"#utility.yul\":1929:1940   */\n      0x00\n        /* \"#utility.yul\":1963:1969   */\n      dup3\n        /* \"#utility.yul\":1958:1961   */\n      dup3\n        /* \"#utility.yul\":1951:1970   */\n      mstore\n        /* \"#utility.yul\":2003:2007   */\n      0x20\n        /* \"#utility.yul\":1998:2001   */\n      dup3\n        /* \"#utility.yul\":1994:2008   */\n      add\n        /* \"#utility.yul\":1979:2008   */\n      swap1\n      pop\n        /* \"#utility.yul\":1830:2014   */\n      swap3\n      swap2\n      pop\n      pop\n      jump\t// out\n        /* \"#utility.yul\":2020:2300   */\n    tag_12:\n        /* \"#utility.yul\":2058:2065   */\n      0x00\n        /* \"#utility.yul\":2081:2099   */\n      tag_47\n        /* \"#utility.yul\":2097:2098   */\n      dup3\n        /* \"#utility.yul\":2081:2099   */\n      tag_48\n      jump\t// in\n    tag_47:\n        /* \"#utility.yul\":2076:2099   */\n      swap2\n      pop\n        /* \"#utility.yul\":2113:2131   */\n      tag_49\n        /* \"#utility.yul\":2129:2130   */\n      dup4\n        /* \"#utility.yul\":2113:2131   */\n      tag_48\n      jump\t// in\n    tag_49:\n        /* \"#utility.yul\":2108:2131   */\n      swap3\n      pop\n        /* \"#utility.yul\":2237:2238   */\n      dup2\n        /* \"#utility.yul\":2231:2235   */\n      0xff\n        /* \"#utility.yul\":2227:2239   */\n      div\n        /* \"#utility.yul\":2224:2225   */\n      dup4\n        /* \"#utility.yul\":2221:2240   */\n      gt\n        /* \"#utility.yul\":2216:2217   */\n      dup3\n        /* \"#utility.yul\":2209:2218   */\n      iszero\n        /* \"#utility.yul\":2202:2219   */\n      iszero\n        /* \"#utility.yul\":2198:2241   */\n      and\n        /* \"#utility.yul\":2195:2264   */\n      iszero\n      tag_50\n      jumpi\n        /* \"#utility.yul\":2244:2262   */\n      tag_51\n      tag_52\n      jump\t// in\n    tag_51:\n        /* \"#utility.yul\":2195:2264   */\n    tag_50:\n        /* \"#utility.yul\":2292:2293   */\n      dup3\n        /* \"#utility.yul\":2289:2290   */\n      dup3\n        /* \"#utility.yul\":2285:2294   */\n      mul\n        /* \"#utility.yul\":2274:2294   */\n      swap1\n      pop\n        /* \"#utility.yul\":2020:2300   */\n      swap3\n      swap2\n      pop\n      pop\n      jump\t// out\n        /* \"#utility.yul\":2306:2383   */\n    tag_39:\n        /* \"#utility.yul\":2343:2350   */\n      0x00\n        /* \"#utility.yul\":2372:2377   */\n      dup2\n        /* \"#utility.yul\":2361:2377   */\n      swap1\n      pop\n        /* \"#utility.yul\":2306:2383   */\n      swap2\n      swap1\n      pop\n      jump\t// out\n        /* \"#utility.yul\":2389:2475   */\n    tag_48:\n        /* \"#utility.yul\":2424:2431   */\n      0x00\n        /* \"#utility.yul\":2464:2468   */\n      0xff\n        /* \"#utility.yul\":2457:2462   */\n      dup3\n        /* \"#utility.yul\":2453:2469   */\n      and\n        /* \"#utility.yul\":2442:2469   */\n      swap1\n      pop\n        /* \"#utility.yul\":2389:2475   */\n      swap2\n      swap1\n      pop\n      jump\t// out\n        /* \"#utility.yul\":2481:2648   */\n    tag_15:\n        /* \"#utility.yul\":2518:2521   */\n      0x00\n        /* \"#utility.yul\":2541:2563   */\n      tag_56\n        /* \"#utility.yul\":2557:2562   */\n      dup3\n        /* \"#utility.yul\":2541:2563   */\n      tag_48\n      jump\t// in\n    tag_56:\n        /* \"#utility.yul\":2532:2563   */\n      swap2\n      pop\n        /* \"#utility.yul\":2585:2589   */\n      0xff\n        /* \"#utility.yul\":2578:2583   */\n      dup3\n        /* \"#utility.yul\":2575:2590   */\n      eq\n        /* \"#utility.yul\":2572:2613   */\n      iszero\n      tag_57\n      jumpi\n        /* \"#utility.yul\":2593:2611   */\n      tag_58\n      tag_52\n      jump\t// in\n    tag_58:\n        /* \"#utility.yul\":2572:2613   */\n    tag_57:\n        /* \"#utility.yul\":2640:2641   */\n      0x01\n        /* \"#utility.yul\":2633:2638   */\n      dup3\n        /* \"#utility.yul\":2629:2642   */\n      add\n        /* \"#utility.yul\":2622:2642   */\n      swap1\n      pop\n        /* \"#utility.yul\":2481:2648   */\n      swap2\n      swap1\n      pop\n      jump\t// out\n        /* \"#utility.yul\":2654:2834   */\n    tag_52:\n        /* \"#utility.yul\":2702:2779   */\n      0x4e487b7100000000000000000000000000000000000000000000000000000000\n        /* \"#utility.yul\":2699:2700   */\n      0x00\n        /* \"#utility.yul\":2692:2780   */\n      mstore\n        /* \"#utility.yul\":2799:2803   */\n      0x11\n        /* \"#utility.yul\":2796:2797   */\n      0x04\n        /* \"#utility.yul\":2789:2804   */\n      mstore\n        /* \"#utility.yul\":2823:2827   */\n      0x24\n        /* \"#utility.yul\":2820:2821   */\n      0x00\n        /* \"#utility.yul\":2813:2828   */\n      revert\n\n    auxdata: 0xa26469706673582212209cbc7c95f0cab7bcb6b0c1055433c9abffaed21d4b0d824b2fb52d93063e103764736f6c63430008070033\n}\n",
				"bytecode": {
					"linkReferences": {},
					"object": "60806040526000600160006101000a81548160ff021916908360ff16021790555034801561002c57600080fd5b506103078061003c6000396000f3fe608060405234801561001057600080fd5b506004361061002b5760003560e01c8063d2c54fa214610030575b600080fd5b61003861004e565b60405161004591906101cb565b60405180910390f35b60605b600a600160009054906101000a900460ff1660ff1610156100f0576000600a600160009054906101000a900460ff1661008a9190610226565b908060018154018082558091505060019003906000526020600020016000909160ff169091909150556001600081819054906101000a900460ff16809291906100d290610278565b91906101000a81548160ff021916908360ff16021790555050610051565b600080548060200260200160405190810160405280929190818152602001828054801561013c57602002820191906000526020600020905b815481526020019060010190808311610128575b5050505050905090565b600061015283836101bc565b60208301905092915050565b6000610169826101fd565b6101738185610215565b935061017e836101ed565b8060005b838110156101af5781516101968882610146565b97506101a183610208565b925050600181019050610182565b5085935050505092915050565b6101c581610261565b82525050565b600060208201905081810360008301526101e5818461015e565b905092915050565b6000819050602082019050919050565b600081519050919050565b6000602082019050919050565b600082825260208201905092915050565b60006102318261026b565b915061023c8361026b565b92508160ff0483118215151615610256576102556102a2565b5b828202905092915050565b6000819050919050565b600060ff82169050919050565b60006102838261026b565b915060ff821415610297576102966102a2565b5b600182019050919050565b7f4e487b7100000000000000000000000000000000000000000000000000000000600052601160045260246000fdfea26469706673582212209cbc7c95f0cab7bcb6b0c1055433c9abffaed21d4b0d824b2fb52d93063e103764736f6c63430008070033",
					"opcodes": "PUSH1 0x80 PUSH1 0x40 MSTORE PUSH1 0x0 PUSH1 0x1 PUSH1 0x0 PUSH2 0x100 EXP DUP2 SLOAD DUP2 PUSH1 0xFF MUL NOT AND SWAP1 DUP4 PUSH1 0xFF AND MUL OR SWAP1 SSTORE POP CALLVALUE DUP1 ISZERO PUSH2 0x2C JUMPI PUSH1 0x0 DUP1 REVERT JUMPDEST POP PUSH2 0x307 DUP1 PUSH2 0x3C PUSH1 0x0 CODECOPY PUSH1 0x0 RETURN INVALID PUSH1 0x80 PUSH1 0x40 MSTORE CALLVALUE DUP1 ISZERO PUSH2 0x10 JUMPI PUSH1 0x0 DUP1 REVERT JUMPDEST POP PUSH1 0x4 CALLDATASIZE LT PUSH2 0x2B JUMPI PUSH1 0x0 CALLDATALOAD PUSH1 0xE0 SHR DUP1 PUSH4 0xD2C54FA2 EQ PUSH2 0x30 JUMPI JUMPDEST PUSH1 0x0 DUP1 REVERT JUMPDEST PUSH2 0x38 PUSH2 0x4E JUMP JUMPDEST PUSH1 0x40 MLOAD PUSH2 0x45 SWAP2 SWAP1 PUSH2 0x1CB JUMP JUMPDEST PUSH1 0x40 MLOAD DUP1 SWAP2 SUB SWAP1 RETURN JUMPDEST PUSH1 0x60 JUMPDEST PUSH1 0xA PUSH1 0x1 PUSH1 0x0 SWAP1 SLOAD SWAP1 PUSH2 0x100 EXP SWAP1 DIV PUSH1 0xFF AND PUSH1 0xFF AND LT ISZERO PUSH2 0xF0 JUMPI PUSH1 0x0 PUSH1 0xA PUSH1 0x1 PUSH1 0x0 SWAP1 SLOAD SWAP1 PUSH2 0x100 EXP SWAP1 DIV PUSH1 0xFF AND PUSH2 0x8A SWAP2 SWAP1 PUSH2 0x226 JUMP JUMPDEST SWAP1 DUP1 PUSH1 0x1 DUP2 SLOAD ADD DUP1 DUP3 SSTORE DUP1 SWAP2 POP POP PUSH1 0x1 SWAP1 SUB SWAP1 PUSH1 0x0 MSTORE PUSH1 0x20 PUSH1 0x0 KECCAK256 ADD PUSH1 0x0 SWAP1 SWAP2 PUSH1 0xFF AND SWAP1 SWAP2 SWAP1 SWAP2 POP SSTORE PUSH1 0x1 PUSH1 0x0 DUP2 DUP2 SWAP1 SLOAD SWAP1 PUSH2 0x100 EXP SWAP1 DIV PUSH1 0xFF AND DUP1 SWAP3 SWAP2 SWAP1 PUSH2 0xD2 SWAP1 PUSH2 0x278 JUMP JUMPDEST SWAP2 SWAP1 PUSH2 0x100 EXP DUP2 SLOAD DUP2 PUSH1 0xFF MUL NOT AND SWAP1 DUP4 PUSH1 0xFF AND MUL OR SWAP1 SSTORE POP POP PUSH2 0x51 JUMP JUMPDEST PUSH1 0x0 DUP1 SLOAD DUP1 PUSH1 0x20 MUL PUSH1 0x20 ADD PUSH1 0x40 MLOAD SWAP1 DUP2 ADD PUSH1 0x40 MSTORE DUP1 SWAP3 SWAP2 SWAP1 DUP2 DUP2 MSTORE PUSH1 0x20 ADD DUP3 DUP1 SLOAD DUP1 ISZERO PUSH2 0x13C JUMPI PUSH1 0x20 MUL DUP3 ADD SWAP2 SWAP1 PUSH1 0x0 MSTORE PUSH1 0x20 PUSH1 0x0 KECCAK256 SWAP1 JUMPDEST DUP2 SLOAD DUP2 MSTORE PUSH1 0x20 ADD SWAP1 PUSH1 0x1 ADD SWAP1 DUP1 DUP4 GT PUSH2 0x128 JUMPI JUMPDEST POP POP POP POP POP SWAP1 POP SWAP1 JUMP JUMPDEST PUSH1 0x0 PUSH2 0x152 DUP4 DUP4 PUSH2 0x1BC JUMP JUMPDEST PUSH1 0x20 DUP4 ADD SWAP1 POP SWAP3 SWAP2 POP POP JUMP JUMPDEST PUSH1 0x0 PUSH2 0x169 DUP3 PUSH2 0x1FD JUMP JUMPDEST PUSH2 0x173 DUP2 DUP6 PUSH2 0x215 JUMP JUMPDEST SWAP4 POP PUSH2 0x17E DUP4 PUSH2 0x1ED JUMP JUMPDEST DUP1 PUSH1 0x0 JUMPDEST DUP4 DUP2 LT ISZERO PUSH2 0x1AF JUMPI DUP2 MLOAD PUSH2 0x196 DUP9 DUP3 PUSH2 0x146 JUMP JUMPDEST SWAP8 POP PUSH2 0x1A1 DUP4 PUSH2 0x208 JUMP JUMPDEST SWAP3 POP POP PUSH1 0x1 DUP2 ADD SWAP1 POP PUSH2 0x182 JUMP JUMPDEST POP DUP6 SWAP4 POP POP POP POP SWAP3 SWAP2 POP POP JUMP JUMPDEST PUSH2 0x1C5 DUP2 PUSH2 0x261 JUMP JUMPDEST DUP3 MSTORE POP POP JUMP JUMPDEST PUSH1 0x0 PUSH1 0x20 DUP3 ADD SWAP1 POP DUP2 DUP2 SUB PUSH1 0x0 DUP4 ADD MSTORE PUSH2 0x1E5 DUP2 DUP5 PUSH2 0x15E JUMP JUMPDEST SWAP1 POP SWAP3 SWAP2 POP POP JUMP JUMPDEST PUSH1 0x0 DUP2 SWAP1 POP PUSH1 0x20 DUP3 ADD SWAP1 POP SWAP2 SWAP1 POP JUMP JUMPDEST PUSH1 0x0 DUP2 MLOAD SWAP1 POP SWAP2 SWAP1 POP JUMP JUMPDEST PUSH1 0x0 PUSH1 0x20 DUP3 ADD SWAP1 POP SWAP2 SWAP1 POP JUMP JUMPDEST PUSH1 0x0 DUP3 DUP3 MSTORE PUSH1 0x20 DUP3 ADD SWAP1 POP SWAP3 SWAP2 POP POP JUMP JUMPDEST PUSH1 0x0 PUSH2 0x231 DUP3 PUSH2 0x26B JUMP JUMPDEST SWAP2 POP PUSH2 0x23C DUP4 PUSH2 0x26B JUMP JUMPDEST SWAP3 POP DUP2 PUSH1 0xFF DIV DUP4 GT DUP3 ISZERO ISZERO AND ISZERO PUSH2 0x256 JUMPI PUSH2 0x255 PUSH2 0x2A2 JUMP JUMPDEST JUMPDEST DUP3 DUP3 MUL SWAP1 POP SWAP3 SWAP2 POP POP JUMP JUMPDEST PUSH1 0x0 DUP2 SWAP1 POP SWAP2 SWAP1 POP JUMP JUMPDEST PUSH1 0x0 PUSH1 0xFF DUP3 AND SWAP1 POP SWAP2 SWAP1 POP JUMP JUMPDEST PUSH1 0x0 PUSH2 0x283 DUP3 PUSH2 0x26B JUMP JUMPDEST SWAP2 POP PUSH1 0xFF DUP3 EQ ISZERO PUSH2 0x297 JUMPI PUSH2 0x296 PUSH2 0x2A2 JUMP JUMPDEST JUMPDEST PUSH1 0x1 DUP3 ADD SWAP1 POP SWAP2 SWAP1 POP JUMP JUMPDEST PUSH32 0x4E487B7100000000000000000000000000000000000000000000000000000000 PUSH1 0x0 MSTORE PUSH1 0x11 PUSH1 0x4 MSTORE PUSH1 0x24 PUSH1 0x0 REVERT INVALID LOG2 PUSH5 0x6970667358 0x22 SLT KECCAK256 SWAP13 0xBC PUSH29 0x95F0CAB7BCB6B0C1055433C9ABFFAED21D4B0D824B2FB52D93063E1037 PUSH5 0x736F6C6343 STOP ADDMOD SMOD STOP CALLER "
				},
				"gasEstimates": {
					"creation": {
						"codeDepositCost": "155000",
						"executionCost": "24469",
						"totalCost": "179469"
					},
					"external": {
						"iterateArray()": "infinite"
					}
				},
				"methodIdentifiers": {
					"iterateArray()": "d2c54fa2"
				}
			},
			"storageLayout": {
				"storage": [
					{
						"astId": 4,
						"contract": "contracts/Loops.sol:Loop",
						"label": "array",
						"offset": 0,
						"slot": "0",
						"type": "t_array(t_uint256)dyn_storage"
					},
					{
						"astId": 7,
						"contract": "contracts/Loops.sol:Loop",
						"label": "i",
						"offset": 0,
						"slot": "1",
						"type": "t_uint8"
					}
				],
				"types": {
					"t_array(t_uint256)dyn_storage": {
						"base": "t_uint256",
						"encoding": "dynamic_array",
						"label": "uint256[]",
						"numberOfBytes": "32"
					},
					"t_uint256": {
						"encoding": "inplace",
						"label": "uint256",
						"numberOfBytes": "32"
					},
					"t_uint8": {
						"encoding": "inplace",
						"label": "uint8",
						"numberOfBytes": "1"
					}
				}
			},
			"userdoc": {
				"kind": "user",
				"methods": {},
				"version": 1
			}
		}
	}
}