{
	"data": {
		"bytecode": {
			"linkReferences": {},
			"object": "608060405234801561001057600080fd5b50610202806100206000396000f3fe608060405234801561001057600080fd5b506004361061004c5760003560e01c80632baeceb714610051578063673402e51461005b578063a87d942c14610079578063d09de08a14610097575b600080fd5b6100596100a1565b005b6100636100ba565b60405161007091906100f8565b60405180910390f35b6100816100c3565b60405161008e91906100f8565b60405180910390f35b61009f6100cc565b005b6000808154809291906100b390610173565b9190505550565b6000602d905090565b60008054905090565b600060019050806000546100e09190610113565b60008190555050565b6100f281610169565b82525050565b600060208201905061010d60008301846100e9565b92915050565b600061011e82610169565b915061012983610169565b9250827fffffffffffffffffffffffffffffffffffffffffffffffffffffffffffffffff0382111561015e5761015d61019d565b5b828201905092915050565b6000819050919050565b600061017e82610169565b915060008214156101925761019161019d565b5b600182039050919050565b7f4e487b7100000000000000000000000000000000000000000000000000000000600052601160045260246000fdfea2646970667358221220ee5227701240e57576dbbd9cf3ea68a22a3f0cb5a1719e8ff3438806254d3c2864736f6c63430008070033",
			"opcodes": "PUSH1 0x80 PUSH1 0x40 MSTORE CALLVALUE DUP1 ISZERO PUSH2 0x10 JUMPI PUSH1 0x0 DUP1 REVERT JUMPDEST POP PUSH2 0x202 DUP1 PUSH2 0x20 PUSH1 0x0 CODECOPY PUSH1 0x0 RETURN INVALID PUSH1 0x80 PUSH1 0x40 MSTORE CALLVALUE DUP1 ISZERO PUSH2 0x10 JUMPI PUSH1 0x0 DUP1 REVERT JUMPDEST POP PUSH1 0x4 CALLDATASIZE LT PUSH2 0x4C JUMPI PUSH1 0x0 CALLDATALOAD PUSH1 0xE0 SHR DUP1 PUSH4 0x2BAECEB7 EQ PUSH2 0x51 JUMPI DUP1 PUSH4 0x673402E5 EQ PUSH2 0x5B JUMPI DUP1 PUSH4 0xA87D942C EQ PUSH2 0x79 JUMPI DUP1 PUSH4 0xD09DE08A EQ PUSH2 0x97 JUMPI JUMPDEST PUSH1 0x0 DUP1 REVERT JUMPDEST PUSH2 0x59 PUSH2 0xA1 JUMP JUMPDEST STOP JUMPDEST PUSH2 0x63 PUSH2 0xBA JUMP JUMPDEST PUSH1 0x40 MLOAD PUSH2 0x70 SWAP2 SWAP1 PUSH2 0xF8 JUMP JUMPDEST PUSH1 0x40 MLOAD DUP1 SWAP2 SUB SWAP1 RETURN JUMPDEST PUSH2 0x81 PUSH2 0xC3 JUMP JUMPDEST PUSH1 0x40 MLOAD PUSH2 0x8E SWAP2 SWAP1 PUSH2 0xF8 JUMP JUMPDEST PUSH1 0x40 MLOAD DUP1 SWAP2 SUB SWAP1 RETURN JUMPDEST PUSH2 0x9F PUSH2 0xCC JUMP JUMPDEST STOP JUMPDEST PUSH1 0x0 DUP1 DUP2 SLOAD DUP1 SWAP3 SWAP2 SWAP1 PUSH2 0xB3 SWAP1 PUSH2 0x173 JUMP JUMPDEST SWAP2 SWAP1 POP SSTORE POP JUMP JUMPDEST PUSH1 0x0 PUSH1 0x2D SWAP1 POP SWAP1 JUMP JUMPDEST PUSH1 0x0 DUP1 SLOAD SWAP1 POP SWAP1 JUMP JUMPDEST PUSH1 0x0 PUSH1 0x1 SWAP1 POP DUP1 PUSH1 0x0 SLOAD PUSH2 0xE0 SWAP2 SWAP1 PUSH2 0x113 JUMP JUMPDEST PUSH1 0x0 DUP2 SWAP1 SSTORE POP POP JUMP JUMPDEST PUSH2 0xF2 DUP2 PUSH2 0x169 JUMP JUMPDEST DUP3 MSTORE POP POP JUMP JUMPDEST PUSH1 0x0 PUSH1 0x20 DUP3 ADD SWAP1 POP PUSH2 0x10D PUSH1 0x0 DUP4 ADD DUP5 PUSH2 0xE9 JUMP JUMPDEST SWAP3 SWAP2 POP POP JUMP JUMPDEST PUSH1 0x0 PUSH2 0x11E DUP3 PUSH2 0x169 JUMP JUMPDEST SWAP2 POP PUSH2 0x129 DUP4 PUSH2 0x169 JUMP JUMPDEST SWAP3 POP DUP3 PUSH32 0xFFFFFFFFFFFFFFFFFFFFFFFFFFFFFFFFFFFFFFFFFFFFFFFFFFFFFFFFFFFFFFFF SUB DUP3 GT ISZERO PUSH2 0x15E JUMPI PUSH2 0x15D PUSH2 0x19D JUMP JUMPDEST JUMPDEST DUP3 DUP3 ADD SWAP1 POP SWAP3 SWAP2 POP POP JUMP JUMPDEST PUSH1 0x0 DUP2 SWAP1 POP SWAP2 SWAP1 POP JUMP JUMPDEST PUSH1 0x0 PUSH2 0x17E DUP3 PUSH2 0x169 JUMP JUMPDEST SWAP2 POP PUSH1 0x0 DUP3 EQ ISZERO PUSH2 0x192 JUMPI PUSH2 0x191 PUSH2 0x19D JUMP JUMPDEST JUMPDEST PUSH1 0x1 DUP3 SUB SWAP1 POP SWAP2 SWAP1 POP JUMP JUMPDEST PUSH32 0x4E487B7100000000000000000000000000000000000000000000000000000000 PUSH1 0x0 MSTORE PUSH1 0x11 PUSH1 0x4 MSTORE PUSH1 0x24 PUSH1 0x0 REVERT INVALID LOG2 PUSH5 0x6970667358 0x22 SLT KECCAK256 0xEE MSTORE 0x27 PUSH17 0x1240E57576DBBD9CF3EA68A22A3F0CB5A1 PUSH18 0x9E8FF3438806254D3C2864736F6C63430008 SMOD STOP CALLER "
		},
		"gasEstimates": {
			"creation": {
				"codeDepositCost": "102800",
				"executionCost": "153",
				"totalCost": "102953"
			},
			"external": {
				"decrement()": "24482",
				"getCount()": "2459",
				"increment()": "infinite",
				"temp()": "337"
			}
		},
		"methodIdentifiers": {
			"decrement()": "2baeceb7",
			"getCount()": "a87d942c",
			"increment()": "d09de08a",
			"temp()": "673402e5"
		}
	},
	"abi": [
		{
			"inputs": [],
			"name": "decrement",
			"outputs": [],
			"stateMutability": "nonpayable",
			"type": "function"
		},
		{
			"inputs": [],
			"name": "getCount",
			"outputs": [
				{
					"internalType": "uint256",
					"name": "",
					"type": "uint256"
				}
			],
			"stateMutability": "view",
			"type": "function"
		},
		{
			"inputs": [],
			"name": "increment",
			"outputs": [],
			"stateMutability": "nonpayable",
			"type": "function"
		},
		{
			"inputs": [],
			"name": "temp",
			"outputs": [
				{
					"internalType": "uint256",
					"name": "",
					"type": "uint256"
				}
			],
			"stateMutability": "pure",
			"type": "function"
		}
	]
}