{
	"data": {
		"bytecode": {
			"linkReferences": {},
			"object": "608060405234801561001057600080fd5b506101e4806100206000396000f3fe608060405234801561001057600080fd5b50600436106100415760003560e01c806344409f9e1461004657806367cb61b614610050578063843f72581461006e575b600080fd5b61004e61008c565b005b6100586100b8565b6040516100659190610106565b60405180910390f35b6100766100ce565b6040516100839190610121565b60405180910390f35b60026000806101000a81548160ff021916908360028111156100b1576100b061016b565b5b0217905550565b60008060009054906101000a900460ff16905090565b60008060028111156100e3576100e261016b565b5b905090565b6100f181610159565b82525050565b6101008161014f565b82525050565b600060208201905061011b60008301846100e8565b92915050565b600060208201905061013660008301846100f7565b92915050565b600081905061014a8261019a565b919050565b6000819050919050565b60006101648261013c565b9050919050565b7f4e487b7100000000000000000000000000000000000000000000000000000000600052602160045260246000fd5b600381106101ab576101aa61016b565b5b5056fea2646970667358221220010a66cec51573e1e1829f834a77368bb1831ec5fa89eca6ef03191adcd12c4764736f6c63430008060033",
			"opcodes": "PUSH1 0x80 PUSH1 0x40 MSTORE CALLVALUE DUP1 ISZERO PUSH2 0x10 JUMPI PUSH1 0x0 DUP1 REVERT JUMPDEST POP PUSH2 0x1E4 DUP1 PUSH2 0x20 PUSH1 0x0 CODECOPY PUSH1 0x0 RETURN INVALID PUSH1 0x80 PUSH1 0x40 MSTORE CALLVALUE DUP1 ISZERO PUSH2 0x10 JUMPI PUSH1 0x0 DUP1 REVERT JUMPDEST POP PUSH1 0x4 CALLDATASIZE LT PUSH2 0x41 JUMPI PUSH1 0x0 CALLDATALOAD PUSH1 0xE0 SHR DUP1 PUSH4 0x44409F9E EQ PUSH2 0x46 JUMPI DUP1 PUSH4 0x67CB61B6 EQ PUSH2 0x50 JUMPI DUP1 PUSH4 0x843F7258 EQ PUSH2 0x6E JUMPI JUMPDEST PUSH1 0x0 DUP1 REVERT JUMPDEST PUSH2 0x4E PUSH2 0x8C JUMP JUMPDEST STOP JUMPDEST PUSH2 0x58 PUSH2 0xB8 JUMP JUMPDEST PUSH1 0x40 MLOAD PUSH2 0x65 SWAP2 SWAP1 PUSH2 0x106 JUMP JUMPDEST PUSH1 0x40 MLOAD DUP1 SWAP2 SUB SWAP1 RETURN JUMPDEST PUSH2 0x76 PUSH2 0xCE JUMP JUMPDEST PUSH1 0x40 MLOAD PUSH2 0x83 SWAP2 SWAP1 PUSH2 0x121 JUMP JUMPDEST PUSH1 0x40 MLOAD DUP1 SWAP2 SUB SWAP1 RETURN JUMPDEST PUSH1 0x2 PUSH1 0x0 DUP1 PUSH2 0x100 EXP DUP2 SLOAD DUP2 PUSH1 0xFF MUL NOT AND SWAP1 DUP4 PUSH1 0x2 DUP2 GT ISZERO PUSH2 0xB1 JUMPI PUSH2 0xB0 PUSH2 0x16B JUMP JUMPDEST JUMPDEST MUL OR SWAP1 SSTORE POP JUMP JUMPDEST PUSH1 0x0 DUP1 PUSH1 0x0 SWAP1 SLOAD SWAP1 PUSH2 0x100 EXP SWAP1 DIV PUSH1 0xFF AND SWAP1 POP SWAP1 JUMP JUMPDEST PUSH1 0x0 DUP1 PUSH1 0x2 DUP2 GT ISZERO PUSH2 0xE3 JUMPI PUSH2 0xE2 PUSH2 0x16B JUMP JUMPDEST JUMPDEST SWAP1 POP SWAP1 JUMP JUMPDEST PUSH2 0xF1 DUP2 PUSH2 0x159 JUMP JUMPDEST DUP3 MSTORE POP POP JUMP JUMPDEST PUSH2 0x100 DUP2 PUSH2 0x14F JUMP JUMPDEST DUP3 MSTORE POP POP JUMP JUMPDEST PUSH1 0x0 PUSH1 0x20 DUP3 ADD SWAP1 POP PUSH2 0x11B PUSH1 0x0 DUP4 ADD DUP5 PUSH2 0xE8 JUMP JUMPDEST SWAP3 SWAP2 POP POP JUMP JUMPDEST PUSH1 0x0 PUSH1 0x20 DUP3 ADD SWAP1 POP PUSH2 0x136 PUSH1 0x0 DUP4 ADD DUP5 PUSH2 0xF7 JUMP JUMPDEST SWAP3 SWAP2 POP POP JUMP JUMPDEST PUSH1 0x0 DUP2 SWAP1 POP PUSH2 0x14A DUP3 PUSH2 0x19A JUMP JUMPDEST SWAP2 SWAP1 POP JUMP JUMPDEST PUSH1 0x0 DUP2 SWAP1 POP SWAP2 SWAP1 POP JUMP JUMPDEST PUSH1 0x0 PUSH2 0x164 DUP3 PUSH2 0x13C JUMP JUMPDEST SWAP1 POP SWAP2 SWAP1 POP JUMP JUMPDEST PUSH32 0x4E487B7100000000000000000000000000000000000000000000000000000000 PUSH1 0x0 MSTORE PUSH1 0x21 PUSH1 0x4 MSTORE PUSH1 0x24 PUSH1 0x0 REVERT JUMPDEST PUSH1 0x3 DUP2 LT PUSH2 0x1AB JUMPI PUSH2 0x1AA PUSH2 0x16B JUMP JUMPDEST JUMPDEST POP JUMP INVALID LOG2 PUSH5 0x6970667358 0x22 SLT KECCAK256 ADD EXP PUSH7 0xCEC51573E1E182 SWAP16 DUP4 0x4A PUSH24 0x368BB1831EC5FA89ECA6EF03191ADCD12C4764736F6C6343 STOP ADDMOD MOD STOP CALLER "
		},
		"gasEstimates": {
			"creation": {
				"codeDepositCost": "96800",
				"executionCost": "147",
				"totalCost": "96947"
			},
			"external": {
				"getChoice()": "2568",
				"getDefaultChoice()": "385",
				"setToLarge()": "24409"
			}
		},
		"methodIdentifiers": {
			"getChoice()": "67cb61b6",
			"getDefaultChoice()": "843f7258",
			"setToLarge()": "44409f9e"
		}
	},
	"abi": [
		{
			"inputs": [],
			"name": "getChoice",
			"outputs": [
				{
					"internalType": "enum enum1.FreshJuice",
					"name": "",
					"type": "uint8"
				}
			],
			"stateMutability": "view",
			"type": "function"
		},
		{
			"inputs": [],
			"name": "getDefaultChoice",
			"outputs": [
				{
					"internalType": "uint256",
					"name": "",
					"type": "uint256"
				}
			],
			"stateMutability": "pure",
			"type": "function"
		},
		{
			"inputs": [],
			"name": "setToLarge",
			"outputs": [],
			"stateMutability": "nonpayable",
			"type": "function"
		}
	]
}